:020000040000FA
:060000006DEF0FF012008D
:020006001200E6
:06000800BCEF08F012003D
:0600180004EF09F01200E4
:02001E000100DF
:0C0020000C1F0000800000001D0000000C
:04002C00D9CFE6FF43
:10003000E1CFD9FFFD0EDBCF14F0DB06FE0EDBCFE8
:1000400015F001E2DB061450151006E00A0EE66E0C
:100050004DEC0FF0E552EED7E552E7CFD9FF120095
:10006000D9CFE6FFE1CFD9FFFD0EDBCF14F0DB06E1
:10007000FE0EDBCF15F001E2DB061450151006E092
:10008000080EE66E7BEC0FF0E552EED7E552E7CFB7
:10009000D9FF1200D9CFE6FFE1CFD9FFFE0EDB502A
:1000A0008C6E8A90010EE66EE66ADADFE552E55262
:1000B0008A80E552E7CFD9FF12009F0EE66EEADF95
:1000C000E552BF0EE66EE6DFE552DF0EE66EE2DFDA
:1000D000E552E668DFDFE5528A968A948B808A884B
:1000E0008A8A8980050EE66EE66AA0DFE552E5524F
:1000F0008990050EE66EE66A99DFE552E552898041
:100100001200D9CFE6FFE1CFD9FF8A94FC0EDB5075
:10011000530801E18A848A968B90FE0EDB508C6E28
:100120008A98000EE66EE66A9BDFE552E5528A8801
:100130008B808A868B90FD0EDB508C6E8A98000E29
:10014000E66EE66A8DDFE552E5528A888B80E552DD
:10015000E7CFD9FF1200020E926E936A900E946E52
:10016000956A966A010EF26ED08EF28EF28CF28E45
:100170009D8A9F8A9D989F98070EC16EC26ABD6A2C
:100180008A928B848B848A808B8289808B808A88F8
:100190008A8A8A968A94949A94969488C79EC78CE1
:1001A000C790C69EC69CC68AC698C690C692C6947C
:1001B000C696DBEF00F0CA96CA98CA9ACA9CCA9043
:1001C000CA92E20ECB6E9F929E929D82CA941200BA
:1001D000D9CFE6FFE1CFD9FFE652C790C69EC950FE
:1001E000DF6EFE0EDB50C96EC7A0FED7C95000D02F
:1001F000E552E552E7CFD9FF1200D9CFE6FFE1CFB4
:10020000D9FF020EE126400EDE6ECE0EDD6E8B941F
:10021000DECF14F0DDCF15F015C014F0156A1450C0
:10022000E66ED6DFE552DFCFE6FFD2DFE5528B8404
:10023000020EE15C02E2E16AE552E16EE552E7CFCF
:10024000D9FF1200D9CFE6FFE1CFD9FF020EE12698
:100250008B92050EE66EBCDFE552E66AB9DFE55229
:10026000DE6EDD6A8B82DF50010BF2E1020EE15C93
:1002700002E2E16AE552E16EE552E7CFD9FF1200F2
:10028000D9CFE6FFE1CFD9FFDDDF8B92060EE66E18
:100290009FDFE5528B82010EE66EE66AC7DEE5520D
:1002A000E5528B92020EE66E93DFE552FD0EDBCF38
:1002B000E6FF8EDFE552FC0EDBCFE6FF89DFE5527D
:1002C000FB0EDBCFE6FF84DFE552FA0EDBCFE6FF65
:1002D0007FDFE5528B82E552E7CFD9FF1200D9CFFD
:1002E000E6FFE1CFD9FFE652DF6AACDF8B92030E67
:1002F000E66E6EDFE552FD0EDBCFE6FF69DFE5520D
:10030000FC0EDBCFE6FF64DFE552FB0EDBCFE6FF42
:100310005FDFE552E66A5CDFE552DF6E8B82DF501D
:1003200000D0E552E552E7CFD9FF12008BDF8B9268
:10033000060EE66E4DDFE5528B82010EE66EE66A32
:1003400075DEE552E5528B92600EE66E41DFE552B6
:100350008B8222EF01F0D9CFE6FFE1CFD9FF72DF28
:100360008B92060EE66E34DFE5528B82010EE66E4E
:10037000E66A5CDEE552E5528B92D80EE66E28DF27
:10038000E552FD0EDBCFE6FF23DFE552FC0EDBCFAF
:10039000E6FF1EDFE552FB0EDBCFE6FF19DFE5527D
:1003A0008B8250DFE552E7CFD9FF1200D9CFE6FFAD
:1003B000E1CFD9FF020EE12645DF8B92060EE66EF5
:1003C00007DFE5528B82010EE66EE66A2FDEE5520C
:1003D000E5528B92020EE66EFBDEE552FD0EDBCFA0
:1003E000E6FFF6DEE552FC0EDBCFE6FFF1DEE5527E
:1003F000FB0EDBCFE6FFECDEE552DE6ADD6ADECF28
:1004000014F0DDCF15F0000E145C010E155812E249
:10041000F90EDBCFE9FFDB2AFA0EDBCFEAFF01E3BF
:10042000DB2AEF50E66ED4DEE552DF2A010E01E34F
:10043000DB2AE5D78B82020EE15C02E2E16AE5523B
:10044000E16EE552E7CFD9FF1200D9CFE6FFE1CF49
:10045000D9FF030EE126040EF36E020EF3CFDBFF8D
:10046000F1DE8B920B0EE66EB3DEE552FD0EDBCFB6
:10047000E6FFAEDEE552FC0EDBCFE6FFA9DEE5527D
:10048000FB0EDBCFE6FFA4DEE552DE6ADD6ADECFDF
:1004900014F0DDCF15F0400E145C000E155815E277
:1004A000E66A96DEE552E66EF90EDBCFE9FFDB2A5F
:1004B000FA0EDBCFEAFF01E3DB2AE552E750EF6EED
:1004C000DF2A010E01E3DB2AE2D78B82D950FB0F32
:1004D000E96EFF0EDA20EA6E400EEE26000EEE22E6
:1004E000EE22EE22020EDB06040EF36E020EDBCFCE
:1004F000F4FFF350F45CB4E3030EE15C02E2E16A62
:10050000E552E16EE552E7CFD9FF1200900E946EEE
:10051000240EAC6E100EAB6E130EAF6EAB8E1200CF
:10052000D9CFE6FFE1CFD9FFFE0EDB50AD6E9EA81E
:10053000FED7E552E7CFD9FF1200AB889EAAFED7BF
:10054000AE5000D01200D9CFE6FFE1CFD9FF0D0E9B
:10055000E126DE6ADE6ADE6ADD6ADD52DD52040E05
:10056000DB6A050EDB6A060EDB6A070EDB6A080E25
:10057000DB6A090EDB6A0A0EDB6A0B0EDB6A0C0E05
:10058000DB6A00C3E6FF01C3E6FF02C3E6FF03C365
:10059000E6FFA5DEE552E552E552E552E76E040EB0
:1005A000E7CFDBFF040EDB50660A02E18BEF07F0BA
:1005B000860A02E1D8EF06F0600A01E195D3010A4C
:1005C00001E192D3030A01E18FD3010A01E18CD347
:1005D000070A01E189D3010A01E186D3030A01E197
:1005E00083D3010A01E180D30F0A01E17DD3010A1F
:1005F00001E17AD3030A01E177D3010A01E174D35F
:10060000070A01E171D3010A01E16ED3030A01E196
:100610006BD3010A01E168D3FF0A01E129D3010A82
:1006200001E126D3030A01E123D3010A01E120D32A
:10063000070A01E11DD3010A01E11AD3030A01E10E
:1006400017D3010A01E114D30F0A01E111D3010A02
:1006500001E10ED3030A01E10BD3010A01E108D342
:10066000070A01E105D3010A01E102D3030A01E10E
:10067000FFD2010A01E1FCD2180A01E16FD1040A9C
:1006800001E148D1010A01E121D1030A01E183D04E
:10069000330A42E0010A40E0030A23E01F0A02E0B5
:1006A00094EF07F00301002B000E01230223032324
:1006B000060EE66EEFDCE55200C3E6FF01C3E6FF7F
:1006C00002C3E6FF03C3E6FF0ADEE552E552E55248
:1006D000E552E66EDFDCE552010EF36EF46A9AEF46
:1006E00007F00301002B000E01230223032300C3A4
:1006F000E6FF01C3E6FF02C3E6FF03C3E6FFEFDD4B
:10070000E552E552E552E552E66EC4DCE552010ED3
:10071000F36EF46A9AEF07F00301002B000E012339
:100720000223032300C3E6FF01C3E6FF02C3E6FF83
:1007300003C3E6FFD4DDE552E552E552E552E76E2C
:10074000050EE7CFDBFF0301002B000E0123022380
:10075000032300C3E6FF01C3E6FF02C3E6FF03C3B2
:10076000E6FFBDDDE552E552E552E552E76E060EC5
:10077000E7CFDBFF040EDBCFE6FF060EDBCFE6FFA5
:10078000050EDBCFE6FFBDDCE552E552E552010E7A
:10079000F36EF46ACFD3DE6ADE6ADE6ADD6ADD52AA
:1007A000DD52070EDB6A080EDB6A070EDBCF14F0A2
:1007B000080EDBCF15F0020E145C000E15585DE23A
:1007C0000301002B000E01230223032300C3E6FFD5
:1007D00001C3E6FF02C3E6FF03C3E6FF80DDE55287
:1007E000E552E552E5521A6E1B6A080E086E096A58
:1007F000070EDBCF0DF0080EDBCF0EF0D7EC0DF0BF
:1008000006501AC018F01BC019F005E0D890183631
:100810001936E804FBE118C008F019C009F0D8EC5B
:100820000CF007C014F008C015F009C016F00AC09B
:1008300017F0D9CFE9FFDACFEAFFEECF07F0EECF1E
:1008400008F0EECF09F0EFCF0AF014C00CF015C09D
:100850000DF016C00EF017C00FF0EEEC0CF00AC051
:10086000EDFF09C0EDFF08C0EDFF07C0EFFF070E69
:10087000DB2A080E01E3DB2A98D7D9CFE9FFDACFCC
:10088000EAFFEECF16F0EECF17F0EECF18F0EFCF75
:1008900019F087C00CF088C00DF089C00EF08AC036
:1008A0000FF016C007F017C008F018C009F019C003
:1008B0000AF084EC0DF0F5EC0DF008C014F009C05E
:1008C00015F014C0F3FF15C0F4FF34D3166AC00E40
:1008D000176E370E186E440E196E87C00CF088C064
:1008E0000DF089C00EF08AC00FF016C007F017C0D7
:1008F00008F018C009F019C00AF084EC0DF0F5EC0E
:100900000DF008C014F009C015F014C0F3FF15C0B5
:10091000F4FF10D3166A800E176E5C0E186E440E2C
:10092000196E87C00CF088C00DF089C00EF08AC027
:100930000FF016C007F017C008F018C009F019C072
:100940000AF084EC0DF0F5EC0DF008C014F009C0CD
:1009500015F014C0F3FF15C0F4FFECD20301002B17
:10096000000E0123022303230301002B000E0123A9
:1009700002230323070EDB6A080EDB6A070EDBCFB8
:1009800014F0080EDBCF15F0040E145C000E1558A1
:1009900038E20301002B000E01230223032300C3CE
:1009A000E6FF01C3E6FF02C3E6FF03C3E6FF97DCF1
:1009B000E552E552E552E552146E156A166A176A59
:1009C000080E086E096A070EDBCF0DF0080EDBCFAC
:1009D0000EF0D7EC0DF006501F0B07E0D890143640
:1009E000153616361736E806F9E1145000019A2735
:1009F000155000019B23070EDB2A080E01E3DB2ABA
:100A0000BDD70001000ED8809A55000E9B5501E31A
:100A100011D10001000ED8809A55500E9B5501E26D
:100A200009D100019C5101E005D1E66A400EE66E55
:100A3000E66A9AC0E6FF9BC0E6FF34DB146E050E43
:100A4000E15E1450E76E0B0EE7CFDBFF010EE66EA2
:100A5000400EE66EE66A9AC0E6FF9BC0E6FF22DB28
:100A6000146E050EE15E1450E76E0C0EE7CFDBFF4F
:100A70000C0EDB50000802E20B0EDB2A070EDB6ACD
:100A8000080EDB6A070EDBCF14F0080EDBCF15F083
:100A90000B0EDB50166E176A1650145C1750155863
:100AA0001DE2070EDBCF14F0080EDBCF15F0060EAB
:100AB000D89014361536E806FBE1000E1426200EF9
:100AC000152214C0E6FF15C0E6FF3EDAE552E552F6
:100AD000070EDB2A080E01E3DB2AD4D7E66AE66AB2
:100AE000010EE66E9AC0E6FF9BC0E6FFDBDA146EED
:100AF000050EE15E1450E76E0B0EE7CFDBFF010E33
:100B0000E66EE66A010EE66E9AC0E6FF9BC0E6FF5F
:100B1000C9DA146E050EE15E1450E76E0C0EE7CFD5
:100B2000DBFF0C0EDB50000802E20B0EDB2A090E85
:100B3000DB6A0A0EDB6A090EDBCF14F00A0EDBCF8C
:100B400015F00B0EDB50166E176A1650145C17501A
:100B5000155865E2070EDB6A080EDB6A070EDBCF6D
:100B600014F0080EDBCF15F0000E145C010E1558C2
:100B700028E20301002B000E01230223032300C3FC
:100B8000E6FF01C3E6FF02C3E6FF03C3E6FF6FEC27
:100B900001F0E552E552E552E552E66E070EDBCF75
:100BA000E9FF080EDBCFEAFF0C0EE926030EEA226E
:100BB000E552E750EF6E070EDB2A080E01E3DB2A51
:100BC000CDD70C0EE66E030EE66E090EDBCF14F0E9
:100BD0000A0EDBCF15F014C015F0146A000E1426AF
:100BE000200E152214C0E6FF15C0E6FFCBD9E55252
:100BF000E552E552E552E66A010EE66EE66A0C0E33
:100C0000E66E030EE66E1DEC0FF0146E050EE15E4F
:100C10001450090EDB2A0A0E01E3DB2A8CD70001EF
:100C2000986B996B010EE66E8EDAE5520001010EAB
:100C30009C6F1BD000C380F001C381F002C382F01F
:100C400003C383F080C004F381C005F382C006F3C0
:100C500083C007F300019A510301002700019B5153
:100C600003010123000E02230323F36AF46A62D115
:100C7000040EDB500F0B010F146E14C009F0C7EC0B
:100C80000CF007C0DEFF08C0DEFF09C0DEFF0AC0AF
:100C9000DDFFDD52DD52D9CFE9FFDACFEAFFEECF3B
:100CA00016F0EECF17F0EECF18F0EFCF19F087C0A7
:100CB0000CF088C00DF089C00EF08AC00FF016C08D
:100CC00007F017C008F018C009F019C00AF084EC4A
:100CD0000DF0F5EC0DF008C014F009C015F014C0CB
:100CE000F3FF15C0F4FF26D1040EDB500F0B146E7A
:100CF00014C009F0C7EC0CF007C0DEFF08C0DEFF2F
:100D000009C0DEFF0AC0DDFFDD52DD522A0EF36EA0
:100D1000050EF3CFDBFF0001000ED8809A55000EC0
:100D20009B551DE20001000ED8809A55500E9B5530
:100D300016E300019C5113E0000E00019825F66EA9
:100D4000200E00019921F76EF86A0D000A00060EC8
:100D5000F5CFDBFF0001982B000E992318D003017B
:100D6000042B000E05230623072304C3E6FF05C357
:100D7000E6FF06C3E6FF07C3E6FF6FEC01F0E552AE
:100D8000E552E552E552E76E060EE7CFDBFF040EB3
:100D9000DBCFE6FF060EDBCFE6FF050EDBCFE6FF7F
:100DA00081EC00F0E552E552E552F36AF46AC2D0F4
:100DB0000001000ED8809A55000E9B5555E20001A7
:100DC000000ED8809A55500E9B554EE300019C5161
:100DD0004BE00001986B996B070EDB6A080EDB6A2B
:100DE000070EDBCF14F0080EDBCF15F0040E145CF9
:100DF000000E155838E20301002B000E01230223D8
:100E0000032300C3E6FF01C3E6FF02C3E6FF03C3FB
:100E1000E6FF6FEC01F0E552E552E552E552166E41
:100E2000176A080E086E096A070EDBCF0DF0080E70
:100E3000DBCF0EF0D7EC0DF0065016C014F017C043
:100E400015F005E0D89014361536E804FBE114508F
:100E500000019827155000019923070EDB2A080E80
:100E600001E3DB2ABDD754D080C004F381C005F371
:100E700082C006F383C007F3070EDB6A080EDB6A45
:100E8000070EDBCF14F0080EDBCF15F0040E145C58
:100E9000000E15583DE20301002B000E0123022332
:100EA000032300C3E6FF01C3E6FF02C3E6FF03C35B
:100EB000E6FF6FEC01F0E552E552E552E552166EA1
:100EC000176A080E086E096A070EDBCF0DF0080ED0
:100ED000DBCF0EF0D7EC0DF0065016C014F017C0A3
:100EE00015F005E0D89014361536E804FBE1000152
:100EF0001450030104270001155003010523000EBF
:100F000006230723070EDB2A080E01E3DB2AB8D7E6
:100F1000F36AF46A0FD003013F0E006F016B026B9E
:100F2000036BF36AF46A06D0F36AF46A03D0F36AD7
:100F3000F46A00D00D0EE15C02E2E16AE552E16E76
:100F4000E552E7CFD9FF1200D9CFE6FFE1CFD9FFB5
:100F5000FD0EDBCFF6FFFE0EDBCFF7FFF86AA68EA5
:100F6000A69CA684A688F29E550EA76EAA0EA76E12
:100F7000A682A6B2FED70000F28EA694E552E7CF75
:100F8000D9FF1200D9CFE6FFE1CFD9FF030EE1264A
:100F9000DF6A010EDB6A020EDB6AFD0EDBCFF6FFB5
:100FA000FE0EDBCFF7FFF86AA694010EDB6A020E95
:100FB000DB6A010EDBCF14F0020EDBCF15F0000E62
:100FC000145C010E155840E2DF6A080EDF5C19E27E
:100FD000DF50E76E010EDBCF14F0020EDBCF15F011
:100FE000E7501426000E1522FB0EDB501424E96E88
:100FF000FC0EDB501520EA6EEF50F56E0D00DF2A77
:10100000E4D70A00A68EA69CA684F29E550EA76E73
:10101000AA0EA76EA682A6B2FED70000A694F28EF4
:101020000900080EE76E010EDBCF14F0020EDBCFD5
:1010300015F0E7501426000E1522010E14C0DBFF38
:10104000020E15C0DBFFB5D7030EE15C02E2E16AD8
:10105000E552E16EE552E7CFD9FF1200D9CFE6FFA6
:10106000E1CFD9FF020EE126DF6A010EDB6AF29EB4
:10107000FD0EDBCFF6FFFE0EDBCFF7FFF86A0D00AB
:101080000A00F550DF6EF28EDF5000D0146E020EB3
:10109000E15C02E2E16AE552E16E1450E552E7CF0D
:1010A000D9FF1200D9CFE6FFE1CFD9FF020EE1262A
:1010B000DF6A010EDB6AFD0EDBCF08F0FE0EDBCF30
:1010C00009F0FB0EDBCF0DF0FC0EDBCF0EF037ECA2
:1010D0000FF00850DF6EFD0EDBCF08F0FE0EDBCF09
:1010E00009F0FB0EDBCF0DF0FC0EDBCF0EF037EC82
:1010F0000FF0010E04C0DBFFFA0EDB5003E1DF50FE
:1011000004D003D0010EDB5000D0146E020EE15C5F
:1011100002E2E16AE552E16E1450E552E7CFD9FFF1
:101120001200D9CFE6FFE1CFD9FFE652A96AA69E09
:10113000A69CA680A850DF6EDF5000D0E552E55295
:10114000E7CFD9FF1200D9CFE6FFE1CFD9FFA96AD7
:10115000FE0EDB50A86EA69EA69CA684F29E550E9F
:10116000A76EAA0EA76EA682A6B2FED7F28EA6948E
:10117000E552E7CFD9FF1200DACFE4FFE2CFDAFF82
:10118000E9CFE4FFEACFE4FFE652D9CFE6FFE1CFB3
:10119000D9FFE6529EAA2CD0060EAB140CE000013B
:1011A000922B000E9323AB9AAE50DF6EAB8A902B3E
:1011B000000E91231DD000018D5109E00C0E8E25EB
:1011C000E96E030E8F21EA6EAECFEFFF08D00C0E52
:1011D0008E25E96E040E8F21EA6EAECFEFFF8E2BC7
:1011E000000E8F23942B952396239723902B9123E6
:1011F000E552E552E7CFD9FFE552E5CFEAFFE5CF6B
:10120000E9FFE5CFDAFF1100D8CFE4FFE0CFE4FF3C
:10121000E46EDACFE4FFE2CFDAFFE9CFE4FFEACF12
:10122000E4FFF6CFE4FFF7CFE4FFF5CFE4FFF3CF21
:10123000E4FFF4CFE4FFFACFE4FF00EE00F0140E79
:10124000E80403E3EECFE4FFFBD700EE14F0080E52
:10125000E80403E3EECFE4FFFBD7E6529EA220D0E2
:101260000001000ED8808455000E855503E28407E6
:10127000000E855B8451851112E1860510E1866BB5
:101280000301002B000E012302230323A3EC02F031
:10129000F3CF84F0F4CF85F00001010E866F8D72DC
:1012A0009E92E55200EE1BF0080EE80403E3E5CF42
:1012B000EDFFFBD700EE13F0140EE80403E3E5CFD7
:1012C000EDFFFBD7E5CFFAFFE5CFF4FFE5CFF3FF66
:1012D000E5CFF5FFE5CFF7FFE5CFF6FFE5CFEAFF76
:1012E000E5CFE9FFE5CFDAFFE550E5CFE0FFE5CF59
:1012F000D8FF1000D9CFE6FFE1CFD9FF500EE1268D
:10130000030EDB6A040EDB6A050EDB6A060EDB6A7F
:10131000070EDB6A080EDB6A090EDB6A0A0EDB6A5F
:101320000B0EDB6A0C0EDB6A0D0EDB6A0E0EDB6A3F
:10133000D9500F0FE96EDACFEAFFEE6AEE6AEE6A75
:10134000EE6AEE6AEE6AEE6AEE6AEE6AEE6AEE6ADD
:10135000EE6AEE6AEE6AEE6AEE6AEE6AEE6AEE6ACD
:10136000EE6AEE6AEE6AEE6AEE6AEE6AEE6AEE6ABD
:10137000EE6AEE6AEE6AEE6AEE6AEE6AEE6AEE6AAD
:10138000EE6AEE6AEE6AEE6AEE6AEE6AEE6AEE6A9D
:10139000EE6AEE6AEE6AEE6AEE6AEE6AEE6AEE6A8D
:1013A000EE6AEE6AEE6AEE6AEE6AEE6AEE6AEE6A7D
:1013B000EE6AEE6AEE6AEE6A4E0EDB6A4F0EDB6A8A
:1013C000E66A010EE66EE66A0C0EE66E030EE66E47
:1013D0001DEC0FF0146E050EE15E1450E66A010E6E
:1013E000E66EE66A0C0EE66E040EE66E1DEC0FF07D
:1013F000146E050EE15E1450ABEC00F0FDEC00F055
:1014000086EC02F05DEC00F08CDE00019C6FFF0EBC
:1014100000019C5D02E100019C6B03013F0E006F27
:10142000016B026B036B0301046B056B066B076BAF
:101430000F0E89168C6ACA84640E03010C5D01E0EC
:101440009AD203010C5102E0000E01D0010ECA94A1
:101450005DEC00F00001946B956B966B976B00014F
:10146000906B916B00018E6B8F6B100EE66E90ECA3
:1014700002F0E552030E0001945D000E9559000E36
:101480009659000E975901E2F5D70EC308F30301F0
:10149000096B0A6B0B6B080E1F0B08C314F009C312
:1014A00015F00AC316F00BC317F007E0D8901436F6
:1014B000153616361736E806F9E10DC318F0196A25
:1014C0001A6A1B6A145018100301086F155019107E
:1014D0000301096F16501A1003010A6F17501B10F1
:1014E00003010B6F080E1F0B08C314F009C315F09E
:1014F0000AC316F00BC317F007E0D8901436153660
:1015000016361736E806F9E10CC318F0196A1A6A9C
:101510001B6A145018100301086F155019100301AD
:10152000096F16501A1003010A6F17501B100301A0
:101530000B6F08C306F009C307F00AC308F00BC31A
:1015400009F00B6A010E0C6E0D6A0E6AF9EC0EF0D2
:10155000070E02C0DBFF080E03C0DBFF08C306F066
:1015600009C307F00AC308F00BC309F00B6A010EA8
:101570000C6E0D6A0E6AF9EC0EF0090E06C0DBFF68
:101580000A0E07C0DBFFE66A010EE66EE66A0C0E85
:10159000E66E030EE66E1DEC0FF0146E050EE15EB6
:1015A0001450E66A010EE66EE66A0C0EE66E040E54
:1015B000E66E1DEC0FF0146E050EE15E1450010E88
:1015C000DF6E0001010E8D6F0001946B956B966BC1
:1015D000976B0001906B916B00018E6B8F6B0B0E04
:1015E000DB6A0C0EDB6A0301006B016B026B036BA1
:1015F00008C306F009C307F00AC308F00BC309F0DB
:101600000B680C680D6A0E6AF9EC0EF0D880000EBB
:101610000654000E0754000E0854000E095426E22A
:1016200008C314F009C315F00AC316F00BC317F072
:101630000B680C680D6A0E6A14C006F015C007F03E
:1016400016C008F017C009F0F9EC0EF006C014F04F
:1016500007C015F008C016F009C017F0142A000ED4
:101660001522000E1622000E172204D0146A156AE5
:10167000166A176A0D0E14C0DBFF010EDB6A020E3C
:10168000DB6A010EDBCF14F0020EDBCF15F00D0E7E
:10169000DB50166E176A1450165C1550175820E36D
:1016A00000C3E6FF01C3E6FF02C3E6FF03C3E6FF94
:1016B000ABEC01F0E552E552E552E552FF0E0301B5
:1016C0000027FF0E03010123000E03010223000E79
:1016D00003010323010EDB2A020E01E3DB2AD1D72B
:1016E0000301006B016B026B036BF00EE66E90EC76
:1016F00002F0E552DF5001E12DD10001925193112A
:1017000020E00001905102E1010E91191AE100015F
:10171000926B936B00019507000E0001965B000E23
:101720000001975B030EDB2A040E01E3DB2A0B0E9C
:10173000DB060C0E01E2DB06010EAD6E9EA8FED7A5
:1017400008D10001905102E1010E91191DE00B0E2C
:10175000DBCF14F00C0EDBCF15F0090EDB501418A4
:1017600003E10A0EDB50151801E0F3D0070EDBCFC2
:1017700016F0080EDBCF17F000019051161802E1A9
:101780009151171801E0E5D00B0EDBCF14F00C0ED1
:10179000DBCF15F0090EDB50141803E10A0EDB5005
:1017A00015181AE1070EDBCF16F0080EDBCF17F085
:1017B00000019051161802E1915117180DE1070E22
:1017C000DBCF08F0080EDBCF09F0050E08C0DBFF09
:1017D000060E09C0DBFF07D0050EDB6A010EF36EB3
:1017E000060EF3CFDBFF00018D5102E0000E01D0A9
:1017F000010E00018D6F0001906B916B00018E6BEB
:101800008F6B0B0EDB2A0C0E01E3DB2A0B0EDBCFFA
:1018100014F00C0EDBCF15F0090EDBCF16F00A0E1C
:10182000DBCF17F01450165C1550175804E3020E66
:10183000AD6E9EA8FED700018D5113E10C0EE66E31
:10184000030EE66E00C3E6FF01C3E6FF02C3E6FF38
:1018500003C3E6FFD6EC01F0146E060EE15E1450F1
:1018600012D00C0EE66E040EE66E00C3E6FF01C356
:10187000E6FF02C3E6FF03C3E6FFD6EC01F0146EF9
:10188000060EE15E1450050EDBCF14F0060EDBCF22
:1018900015F0000114500301002700011550030149
:1018A0000123000E02230323080EE96E030EEA6EE5
:1018B000EE50000194190CE1EE500001951908E179
:1018C000EE500001961904E1EE500001971900E175
:1018D00040E10B0EDBCF14F00C0EDBCF15F0090E40
:1018E000DBCF16F00A0EDBCF17F01650145C175042
:1018F00015582FE3DF6A0001010E8D6F0001906B18
:10190000916B00018E6B8F6B020EAD6E9EA8FED7A1
:101910000301006B016B026B036BE66A010EE66E5E
:10192000E66A0C0EE66E030EE66E1DEC0FF0146E0A
:10193000050EE15E1450E66A010EE66EE66A0C0ED4
:10194000E66E040EE66E1DEC0FF0146E050EE15E01
:101950001450D0D603013F0E006F016B026B036B76
:101960000301046B056B066B076BFF00CA84E66A14
:10197000A3EC08F0E5528D745FD5500EE15C02E2F5
:0E198000E16AE552E16EE552E7CFD9FF1200B1
:02198E00019EB8
:1019900005D0019E09AE02D0096C018E09C003F08A
:1019A000026A136A126A860E046E056A40EF0EF030
:1019B000019E08D0019E09AE05D0086C091EE86A98
:1019C0000922018E09C003F008C002F0136A126AEE
:1019D0008E0E046E056A40EF0EF00F7E016A7CECFD
:1019E0000EF094EC0EF001B624EF0EF001A20AD036
:1019F00001AA03D001BE24EF0EF001A430EF0EF0D7
:101A00002DEF0EF001AA05D001AC30EF0EF02DEF56
:101A10000EF001A00AD001A808D001BE04D001A494
:101A200002D039EF0EF03DEF0EF0126A056A0F504A
:101A30000A5C116E10E307C013F008C002F009C081
:101A400003F00AC010F00CC007F00DC008F00EC083
:101A500009F0013A09D00CC013F00DC002F00EC01D
:101A600003F00FC010F0116C019E01BC018E10C07C
:101A700004F001B06CEF0EF01A0E11606CEF0EF076
:101A8000046A0A6A01A408D0076C081E091E0A1E0F
:101A9000E86A082209220A2201AC08D0136C021E4F
:101AA000031E041EE86A022203220422066A11525F
:101AB00007E00A340932083207320632112EF9D70C
:101AC0000750132608500222095003220A5004220C
:101AD00006C012F0019E04AE0BD0126C131E021E43
:101AE000031E041EE86A1322022203220422018E2E
:101AF00004A006D0D8800332023213321232102AE8
:101B000010C004F040EF0EF0016A7CEC0EF094EC93
:101B10000EF001B624EF0EF001A205D001BA24EFB9
:101B20000EF02BEF0EF001BA37EF0EF001A005D04A
:101B300001B824EF0EF037EF0EF001B82BEF0EF0E6
:101B4000056A7F0E0A24046EE86A05220F50045EBF
:101B5000E86A055A1A0E106E0A6A126A136A026A55
:101B6000036A0C50075E0D50085A0E50095A000EB9
:101B70000A5A09E70C5007260D5008220E50092278
:101B8000000E0A2201D0128AD8900736083609368C
:101B90000A36D8901236133602360336102EE1D7A5
:101BA000095008100710D8A4128A40EF0EF008C0A0
:101BB00012F008500D02F4CF07F0F3CF06F00950F1
:101BC0000E02F4CF09F0F3CF08F00D02F350072610
:101BD000F4500822E86A092212500E02F350072638
:101BE000F4500822E86A0922000C016A7CEC0EF02D
:101BF00001B6FFEF0DF001A20ED001B405D07F0EAB
:101C0000096EFF0E086E1FD0800E096E086A1BD089
:101C1000096A086A18D001B0FBD78F0E0A60EDD7A9
:101C20007E0E0A64F5D78E0E0A5C05E0D890093264
:101C300008320A2AF8D701A406D0086C091EE86AFF
:101C4000092209AEE5D712007F0E0A6EFF0E096E5B
:101C5000086E076E12007F0E01BEFF0E0A6E02D0E4
:101C60007F0E0A6E800E096E086A076AF3D701AE0E
:101C700004D0800E0A6E096AF7D70A6A096AF4D797
:101C80000350021013101210F8E005BEF0D703BE87
:101C90000CD004500510EBE0D89012361336023603
:101CA00003360406D8A00506F2D70550D4E104286F
:101CB000D2E012AE11D07F0E121402E113A00CD0AC
:101CC000132AE86A0222032207E3D8800332023291
:101CD0001332042A0428BFE00450C9E013C007F0FF
:101CE00002C008F00334096E04300A6E09320A9EFD
:101CF00001BE0A8E2AEF0EF009360A3602E301848D
:101D0000017E06E101800A6A096A086A076A120010
:101D10000A2803E0D88009321200D890093202E183
:101D200001821200018612000E360F3602E3018C8A
:101D3000017E06E101880F6A0E6A0D6A0C6A1200C4
:101D40000F2803E0D8800E321200D8900E32EAE15C
:041D5000018A1200F2
:0C1D54001E0EF66E000EF76E000EF86E0C
:101D600000010900F550A26F0900F550A36F03E1CF
:101D7000A26701D03DD00900F5509D6F0900F550D4
:101D80009E6F0900F5509F6F09000900F550E96E3C
:101D90000900F550EA6E090009000900F550A06F2E
:101DA0000900F550A16F09000900F6CFA4F0F7CFA4
:101DB000A5F0F8CFA6F09DC0F6FF9EC0F7FF9FC02C
:101DC000F8FF0001A05302E1A15307E00900F5501C
:101DD000EE6EA007F8E2A107F9D7A4C0F6FFA5C0F0
:101DE000F7FFA6C0F8FF0001A207000EA35BBFD754
:021DF0001200DF
:0E1DF200056A046A036A026A200EE76ED89042
:101E000006360736083609360236033604360536F6
:101E10000B50025C0C5003580D5004580E500558DE
:101E200009E30B50025E0C50035A0D50045A0E5039
:0A1E3000055A062AE72EE4D7120037
:061E3A00FE0EE3CFE9FFFC
:101E4000FF0EE3CFEAFFE9CFF3FFEACFF4FFFB0E8B
:101E5000E35003E1FC0EE35009E0FB0EE30602E26F
:0E1E6000FC0EE306FD0EE350EE6EF1D712000D
:021E6E00056A03
:101E7000046A100EE76ED890083609360436053627
:101E80000D50045C0E50055805E30D50045E0E50D5
:0A1E9000055A082AE72EF0D71200C9
:061E9A00FF0EE3501C6E78
:101EA000480E01D04C0EE76EE72EFED7E76AE72E0C
:0A1EB000FED71C2EF7D70000120029
:061EBA00000EF36E00EEC5
:101EC00000F0060E01D81200EA6002D0EE6AFCD7DC
:0A1ED000F350E9601200EE6AFCD73F
:061EDA0012EE00F022EE02
:101EE00000F0F86A019CAAEC0EF003EC00F07AEC2A
:061EF00009F0FBD712000F
:0A1EF600FF0EE350E84E120000005A
:0C1F000000D000D000D0E82EFAD712006C
:041F0C0000000000D1
:101F10000000015C8F024000000100000000000092
:091F2000000000000000000000B8
:020000040030CA
:0100010026D8
:010002000BF2
:010003000EEE
:0100050001F9
:0100060001F8
:010008000FE8
:01000900C036
:01000A000FE6
:01000B00E014
:01000C000FE4
:01000D0040B2
:00000001FF
