:020000040000FA
:06000000BFEF1CF012002E
:020006001200E6
:06000800CAEF10F0120027
:060018001DEF11F01200C3
:02001E000100DF
:0C002000B0390000D405000023000000EF
:04002C00D9CFE6FF43
:10003000E1CFD9FFFD0EDBCF1CF0DB06FE0EDBCFE0
:100040001DF001E2DB061C501D1006E00A0EE66EF4
:100050009FEC1CF0E552EED7E552E7CFD9FF120036
:10006000D9CFE6FFE1CFD9FFFD0EDBCF1CF0DB06D9
:10007000FE0EDBCF1DF001E2DB061C501D1006E07A
:10008000080EE66ECDEC1CF0E552EED7E552E7CF58
:10009000D9FF1200D9CFE6FFE1CFD9FFFE0EDB502A
:1000A0008C6E8A90010EE66EE66ADADFE552E55262
:1000B0008A80E552E7CFD9FF12009F0EE66EEADF95
:1000C000E552BF0EE66EE6DFE552DF0EE66EE2DFDA
:1000D000E552E668DFDFE5528A968A948B808A884B
:1000E0008A8A8980050EE66EE66AA0DFE552E5524F
:1000F0008990050EE66EE66A99DFE552E552898041
:100100001200D9CFE6FFE1CFD9FF8A94FC0EDB5075
:10011000530801E18A848A968B90FE0EDB508C6E28
:100120008A98000EE66EE66A9BDFE552E5528A8801
:100130008B808A868B90FD0EDB508C6E8A98000E29
:10014000E66EE66A8DDFE552E5528A888B80E552DD
:10015000E7CFD9FF1200020E926E936A900E946E52
:10016000956A966A010EF26ED08EF28EF28CF28E45
:100170009D8A9F8A9D989F98070EC16EC26ABD6A2C
:100180008A928B848B848A808B8289808B808A88F8
:100190008A8A8A968A94949A94969488C79EC78CE1
:1001A000C790C69EC69CC68AC698C690C692C6947C
:1001B000C696E7EF00F0F184D59ED58CD59AD598F8
:1001C000D596D594D592D590F28AD6681200CA9663
:1001D000CA98CA9ACA9CCA90CA92E20ECB6E9F92E3
:1001E0009E929D82CA941200D9CFE6FFE1CFD9FF3B
:1001F000E652C790C69EC950DF6EFE0EDB50C96E38
:10020000C7A0FED7C95000D0E552E552E7CFD9FFCD
:100210001200D9CFE6FFE1CFD9FF020EE126400E52
:10022000DE6ECE0EDD6E8B94DECF1CF0DDCF1DF0CA
:100230001DC01CF01D6A1C50E66ED6DFE552DFCFF4
:10024000E6FFD2DFE5528B84020EE15C02E2E16A56
:10025000E552E16EE552E7CFD9FF1200D9CFE6FFB4
:10026000E1CFD9FFE6528B92C790C69EC950DF6E90
:10027000050EC96EC7A0FED7C790C69EC950DF6ED7
:10028000C96AC7A0FED78B82C9B0EDD7E552E55247
:10029000E7CFD9FF1200D9CFE6FFE1CFD9FFE65271
:1002A0008B92C950DF6E030EC96EC7A0FED7C9502E
:1002B000DF6EFD0EDB50C96EC7A0FED7C950DF6EE2
:1002C000FC0EDB50C96EC7A0FED7C950DF6EFB0E17
:1002D000DB50C96EC7A0FED7C950DF6EC96AC7A080
:1002E000FED78B82C95000D0E552E552E7CFD9FF47
:1002F0001200D9CFE6FFE1CFD9FFB0DF8B92060E17
:10030000E66E72DFE5528B82010EE66EE66A8EDEE5
:10031000E552E5528B92020EE66E66DFE552FD0E67
:10032000DBCFE6FF61DFE552FC0EDBCFE6FF5CDFF3
:10033000E552FB0EDBCFE6FF57DFE552FA0EDBCFCF
:10034000E6FF52DFE5528B82E552E7CFD9FF12007C
:10035000D9CFE6FFE1CFD9FFE652DF6A7FDF8B928C
:10036000030EE66E41DFE552FD0EDBCFE6FF3CDF1C
:10037000E552FC0EDBCFE6FF37DFE552FB0EDBCFAD
:10038000E6FF32DFE552E66A2FDFE552DF6E8B8251
:10039000DF5000D0E552E552E7CFD9FF12005EDF13
:1003A0008B92060EE66E20DFE5528B82010EE66E22
:1003B000E66A3CDEE552E5528B92600EE66E14DF93
:1003C000E5528B822EEF01F0D9CFE6FFE1CFD9FFC6
:1003D00045DF8B92060EE66E07DFE5528B82010E3B
:1003E000E66EE66A23DEE552E5528B92D80EE66EA3
:1003F000FBDEE552FD0EDBCFE6FFF6DEE552FC0E3E
:10040000DBCFE6FFF1DEE552FB0EDBCFE6FFECDEF5
:10041000E5528B8223DFE552E7CFD9FF1200D9CF17
:10042000E6FFE1CFD9FF020EE12618DF8B92060E20
:10043000E66EDADEE5528B82010EE66EE66AF6DDE6
:10044000E552E5528B92020EE66ECEDEE552FD0ECF
:10045000DBCFE6FFC9DEE552FC0EDBCFE6FFC4DEF4
:10046000E552FB0EDBCFE6FFBFDEE552DE6ADD6A5A
:10047000DECF1CF0DDCF1DF0000E1C5C010E1D5800
:1004800012E2F90EDBCFE9FFDB2AFA0EDBCFEAFF3F
:1004900001E3DB2AEF50E66EA7DEE552DF2A010E0C
:1004A00001E3DB2AE5D78B82020EE15C02E2E16A1E
:1004B000E552E16EE552E7CFD9FF1200D9CFE6FF52
:1004C000E1CFD9FF030EE126040EF36E020EF3CF47
:1004D000DBFFC4DE8B920B0EE66E86DEE552FD0E70
:1004E000DBCFE6FF81DEE552FC0EDBCFE6FF7CDEF4
:1004F000E552FB0EDBCFE6FF77DEE552DE6ADD6A12
:10050000DECF1CF0DDCF1DF0400E1C5C000E1D5830
:1005100015E2E66A69DEE552E66EF90EDBCFE9FF29
:10052000DB2AFA0EDBCFEAFF01E3DB2AE552E750D4
:10053000EF6EDF2A010E01E3DB2AE2D78B82D9506E
:10054000FB0FE96EFF0EDA20EA6E400EEE26000E7B
:10055000EE22EE22EE22020EDB06040EF36E020EF7
:10056000DBCFF4FFF350F45CB4E3030EE15C02E292
:10057000E16AE552E16EE552E7CFD9FF1200900E35
:10058000946E240EAC6E100EAB6E130EAF6EAB8E6F
:100590001200D9CFE6FFE1CFD9FFFE0EDB50AD6EE2
:1005A0009EA8FED7E552E7CFD9FF1200AB889EAADE
:1005B000FED7AE5000D01200D9CFE6FFE1CFD9FF71
:1005C0000F0EE126DE6ADE6ADE6ADD6ADD52DD528A
:1005D000040EDB6A050EDB6A060EDB6A070EDB6AB9
:1005E000080EDB6A090EDB6A0A0EDB6A0B0EDB6A99
:1005F0000C0EDB6A0D0EDB6A8B920E0EC9CFDBFF91
:10060000030EC96EC7A0FED70E0EC9CFDBFF02C313
:10061000C9FFC7A0FED70E0EC9CFDBFF01C3C9FFBC
:10062000C7A0FED70E0EC9CFDBFF00C3C9FFC7A00E
:10063000FED70D0EC9CFDBFFC96AC7A0FED78B82DC
:10064000040EC9CFDBFF040EDB50660A02E176EF31
:1006500008F0860A02E1A3EF07F0600A01E1E2D3A5
:10066000010A01E1DFD3030A01E1DCD3010A01E160
:10067000D9D3070A01E1D6D3010A01E1D3D3030A92
:1006800001E1D0D3010A01E1CDD30F0A01E1CAD3C0
:10069000010A01E1C7D3030A01E1C4D3010A01E160
:1006A000C1D3070A01E1BED3010A01E1BBD3030AAA
:1006B00001E1B8D3010A01E1B5D3FF0A01E176D324
:1006C000010A01E173D3030A01E170D3010A01E1D8
:1006D0006DD3070A01E16AD3010A01E167D3030A76
:1006E00001E164D3010A01E161D30F0A01E15ED3A4
:1006F000010A01E15BD3030A01E158D3010A01E1D8
:1007000055D3070A01E152D3010A01E14FD3030A8D
:1007100001E14CD3010A01E149D3180A01E1B1D149
:10072000040A01E18AD1010A01E163D1030A01E16E
:10073000ADD0330A40E0010A3EE0030A22E01F0A7E
:1007400002E07FEF08F00301002B000E01230223DB
:100750000323060EE66E9EDCE55200C3E6FF01C3EE
:10076000E6FF02C3E6FF03C3E6FF95DDE552E5526F
:10077000E552E552E66E8EDCE552F36AF46A85EFE7
:1007800008F00301002B000E01230223032300C302
:10079000E6FF01C3E6FF02C3E6FF03C3E6FF7BDD1E
:1007A000E552E552E552E552E66E74DCE552F36A35
:1007B000F46A85EF08F00301002B000E01230223E9
:1007C00003238B920E0EC9CFDBFF030EC96EC7A0A9
:1007D000FED70E0EC9CFDBFF02C3C9FFC7A0FED7ED
:1007E0000E0EC9CFDBFF01C3C9FFC7A0FED70E0E97
:1007F000C9CFDBFF00C3C9FFC7A0FED70D0EC9CF0D
:10080000DBFFC96AC7A0FED78B82050EC9CFDBFF0D
:100810000301002B000E0123022303238B920E0EF3
:10082000C9CFDBFF030EC96EC7A0FED70E0EC9CF1E
:10083000DBFF02C3C9FFC7A0FED70E0EC9CFDBFF87
:1008400001C3C9FFC7A0FED70E0EC9CFDBFF00C38F
:10085000C9FFC7A0FED70D0EC9CFDBFFC96AC7A06D
:10086000FED78B82060EC9CFDBFF040EDBCFE6FF7F
:10087000060EDBCFE6FF050EDBCFE6FF42DCE552DE
:10088000E552E552F36AF46A85EF08F0DE6ADE6A43
:10089000DE6ADD6ADD52DD52070EDB6A080EDB6AB6
:1008A000070EDBCF1CF0080EDBCF1DF0020E1C5C28
:1008B000000E1D5875E20301002B000E01230223D8
:1008C00003238B920E0EC9CFDBFF030EC96EC7A0A8
:1008D000FED70E0EC9CFDBFF02C3C9FFC7A0FED7EC
:1008E0000E0EC9CFDBFF01C3C9FFC7A0FED70E0E96
:1008F000C9CFDBFF00C3C9FFC7A0FED70D0EC9CF0C
:10090000DBFFC96AC7A0FED78B82C950226E236A5B
:10091000080E086E096A070EDBCF0DF0080EDBCF5C
:100920000EF029EC1BF0065022C020F023C021F06D
:1009300005E0D89020362136E804FBE120C008F01D
:1009400021C009F02AEC1AF007C01CF008C01DF005
:1009500009C01EF00AC01FF0D9CFE9FFDACFEAFFC5
:10096000EECF07F0EECF08F0EECF09F0EFCF0AF0B0
:100970001CC00CF01DC00DF01EC00EF01FC00FF00B
:1009800040EC1AF00AC0EDFF09C0EDFF08C0EDFF12
:1009900007C0EFFF070EDB2A080E01E3DB2A80D732
:1009A000D9CFE9FFDACFEAFFEECF1EF0EECF1FF08E
:1009B000EECF20F0EFCF21F0DBC50CF0DCC50DF061
:1009C000DDC50EF0DEC50FF01EC007F01FC008F039
:1009D00020C009F021C00AF0D6EC1AF047EC1BF059
:1009E00008C01CF009C01DF01CC0F3FF1DC0F4FFBF
:1009F0008CD31E6AC00E1F6E370E206E440E216E01
:100A0000DBC50CF0DCC50DF0DDC50EF0DEC50FF06A
:100A10001EC007F01FC008F020C009F021C00AF076
:100A2000D6EC1AF047EC1BF008C01CF009C01DF012
:100A30001CC0F3FF1DC0F4FF68D31E6A800E1F6E3A
:100A40005C0E206E440E216EDBC50CF0DCC50DF093
:100A5000DDC50EF0DEC50FF01EC007F01FC008F0A8
:100A600020C009F021C00AF0D6EC1AF047EC1BF0C8
:100A700008C01CF009C01DF01CC0F3FF1DC0F4FF2E
:100A800044D30301002B000E01230223032303019F
:100A9000002B000E012302230323070EDB6A080E3E
:100AA000DB6A070EDBCF1CF0080EDBCF1DF0040E57
:100AB0001C5C000E1D5839E20301002B000E0123BF
:100AC0000223032300C3E6FF01C3E6FF02C3E6FFE0
:100AD00003C3E6FF4BEC01F0E552E552E552E55267
:100AE0001C6E1D6A1E6A1F6A080E086E096A070ED0
:100AF000DBCF0DF0080EDBCF0EF029EC1BF006501B
:100B00001F0B07E0D8901C361D361E361F36E80630
:100B1000F9E11C500501F0271D500501F123070ED6
:100B2000DB2A080E01E3DB2ABCD70501000ED880C2
:100B3000F055000EF15501E318D10501000ED880E3
:100B4000F055000EF15501E210D10501F25101E01E
:100B50000CD1E66A400EE66EE66AF0C5E6FFF1C526
:100B6000E6FF60EC10F01C6E050EE15E1C50E76EB7
:100B70000B0EE7CFDBFF010EE66E400EE66EE66A77
:100B8000F0C5E6FFF1C5E6FF60EC10F01C6E050E47
:100B9000E15E1C50E76E0C0EE7CFDBFF0C0EDB5066
:100BA000000802E20B0EDB2A070EDB6A080EDB6A86
:100BB000070EDBCF1CF0080EDBCF1DF00B0EDB5059
:100BC0001E6E1F6A1E501C5C1F501D581EE2070E31
:100BD000DBCF1CF0080EDBCF1DF0060ED8901C36C4
:100BE0001D36E806FBE1000E1C26300E1D221CC03F
:100BF000E6FF1DC0E6FFB2EC0FF0E552E552070E2E
:100C0000DB2A080E01E3DB2AD3D7E66AE66A010E87
:100C1000E66EF0C5E6FFF1C5E6FF60EC10F01C6E75
:100C2000050EE15E1C50E76E0B0EE7CFDBFF010EF9
:100C3000E66EE66A010EE66EF0C5E6FFF1C5E6FF78
:100C400060EC10F01C6E050EE15E1C50E76E0C0EA1
:100C5000E7CFDBFF0C0EDB50000802E20B0EDB2AB5
:100C6000090EDB6A0A0EDB6A090EDBCF1CF00A0EE6
:100C7000DBCF1DF00B0EDB501E6E1F6A1E501C5C7E
:100C80001F501D5866E2070EDB6A080EDB6A070E6E
:100C9000DBCF1CF0080EDBCF1DF0000E1C5C010E3C
:100CA0001D5828E20301002B000E01230223032319
:100CB00000C3E6FF01C3E6FF02C3E6FF03C3E6FF8E
:100CC0004BEC01F0E552E552E552E552E66E070EB7
:100CD000DBCFE9FF080EDBCFEAFF0C0EE926030E9F
:100CE000EA22E552E750EF6E070EDB2A080E01E319
:100CF000DB2ACDD70C0EE66E030EE66E090EDBCFB7
:100D00001CF00A0EDBCF1DF01CC01DF01C6A000E8B
:100D10001C26300E1D221CC0E6FF1DC0E6FFD0ECD5
:100D20000FF0E552E552E552E552E66A010EE66E35
:100D3000E66A0C0EE66E030EE66E6FEC1CF01C6E9F
:100D4000050EE15E1C50090EDB2A0A0E01E3DB2AC8
:100D50008BD70501EE6BEF6B010EE66EB1EC10F078
:100D6000E5520501010EF26F1ED00501F25110E1AE
:100D700000C3D4F501C3D5F502C3D6F503C3D7F537
:100D8000D4C504F3D5C505F3D6C506F3D7C507F317
:100D90000501F051030100270501F1510301012371
:100DA000000E02230323F36AF46AAFD1040EDB5072
:100DB0000F0B010F1C6E1CC009F019EC1AF007C0D4
:100DC000DEFF08C0DEFF09C0DEFF0AC0DDFFDD5226
:100DD000DD52D9CFE9FFDACFEAFFEECF1EF0EECF3A
:100DE0001FF0EECF20F0EFCF21F0DBC50CF0DCC51B
:100DF0000DF0DDC50EF0DEC50FF01EC007F01FC000
:100E000008F020C009F021C00AF0D6EC1AF047EC37
:100E10001BF008C01CF009C01DF01CC0F3FF1DC072
:100E2000F4FF73D1040EDB500F0B1C6E1CC009F0D5
:100E300019EC1AF007C0DEFF08C0DEFF09C0DEFFB4
:100E40000AC0DDFFDD52DD522A0EF36E050EF3CF30
:100E5000DBFF0501F25113E00501EE2B000EEF233D
:100E6000000E0501EE25F66E300E0501EF21F76E3E
:100E7000F86A0D000A00060EF5CFDBFF2DD0030146
:100E8000042B000E0523062307238B920E0EC9CFD9
:100E9000DBFF030EC96EC7A0FED70E0EC9CFDBFF66
:100EA00006C3C9FFC7A0FED70E0EC9CFDBFF05C31F
:100EB000C9FFC7A0FED70E0EC9CFDBFF04C3C9FF11
:100EC000C7A0FED70D0EC9CFDBFFC96AC7A0FED7EA
:100ED0008B82060EC9CFDBFF040EDBCFE6FF060ECA
:100EE000DBCFE6FF050EDBCFE6FF81EC00F0E5523D
:100EF000E552E552D9CFE9FFDACFEAFFEECF1EF097
:100F0000EECF1FF0EECF20F0EFCF21F0DBC50CF0DD
:100F1000DCC50DF0DDC50EF0DEC50FF01EC007F01C
:100F20001FC008F020C009F021C00AF0D6EC1AF06A
:100F300047EC1BF008C01CF009C01DF01CC0F3FFFB
:100F40001DC0F4FFE2D00501F25162E00501EE6B35
:100F5000EF6B070EDB6A080EDB6A070EDBCF1CF0B7
:100F6000080EDBCF1DF0040E1C5C000E1D584FE276
:100F70000301002B000E0123022303238B920E0E8C
:100F8000C9CFDBFF030EC96EC7A0FED70E0EC9CFB7
:100F9000DBFF02C3C9FFC7A0FED70E0EC9CFDBFF20
:100FA00001C3C9FFC7A0FED70E0EC9CFDBFF00C328
:100FB000C9FFC7A0FED70D0EC9CFDBFFC96AC7A006
:100FC000FED78B82C9501E6E1F6A080E086E096A12
:100FD000070EDBCF0DF0080EDBCF0EF029EC1BF077
:100FE00006501EC01CF01FC01DF005E0D8901C3636
:100FF0001D36E804FBE11C500501EE271D500501DC
:10100000EF23070EDB2A080E01E3DB2AA6D76BD0FD
:10101000D4C504F3D5C505F3D6C506F3D7C507F384
:10102000070EDB6A080EDB6A070EDBCF1CF0080E2A
:10103000DBCF1DF0040E1C5C000E1D5854E20301B2
:10104000002B000E0123022303238B920E0EC9CF27
:10105000DBFF030EC96EC7A0FED70E0EC9CFDBFFA4
:1010600002C3C9FFC7A0FED70E0EC9CFDBFF01C365
:10107000C9FFC7A0FED70E0EC9CFDBFF00C3C9FF53
:10108000C7A0FED70D0EC9CFDBFFC96AC7A0FED728
:101090008B82C9501E6E1F6A080E086E096A070E01
:1010A000DBCF0DF0080EDBCF0EF029EC1BF0065065
:1010B0001EC01CF01FC01DF005E0D8901C361D3668
:1010C000E804FBE100011C500301042700011D504E
:1010D00003010523000E06230723070EDB2A080E53
:1010E00001E3DB2AA1D7F36AF46A0FD003013F0EB4
:1010F000006F016B026B036BF36AF46A06D0F36A4C
:10110000F46A03D0F36AF46A00D00F0EE15C02E2E5
:10111000E16AE552E16EE552E7CFD9FF1200D9CF7F
:10112000E6FFE1CFD9FF0F0EE126DE6ADE6ADE6A56
:10113000DD6ADD52DD52040EDB6A050EDB6A060E47
:10114000DB6A070EDB6A080EDB6A090EDB6A0A0E31
:10115000DB6A0B0EDB6A0C0EDB6A0D0EDB6A8B9210
:101160000E0EC9CFDBFF030EC96EC7A0FED70E0E51
:10117000C9CFDBFF02C3C9FFC7A0FED70E0EC9CF80
:10118000DBFF01C3C9FFC7A0FED70E0EC9CFDBFF2F
:1011900000C3C9FFC7A0FED70D0EC9CFDBFFC96AC8
:1011A000C7A0FED78B82040EC9CFDBFF040EDB5035
:1011B0004F0823E10301002B000E01230223032328
:1011C000060EE66E4AEC00F0E55200C3E6FF01C3EE
:1011D000E6FF02C3E6FF03C3E6FF4BEC01F0E55276
:1011E000E552E552E552E66E4AEC00F0E552F36A4C
:1011F000F46A0EEF0EF00EEF0EF0040EDB50500806
:101200001EE10301002B000E01230223032300C370
:10121000E6FF01C3E6FF02C3E6FF03C3E6FF4BECB4
:1012200001F0E552E552E552E552E66E4AEC00F077
:10123000E552F36AF46A0EEF0EF00EEF0EF0040EB4
:10124000DB50520804E0040EDB5053086EE103014A
:10125000002B000E0123022303238B920E0EC9CF15
:10126000DBFF030EC96EC7A0FED70E0EC9CFDBFF92
:1012700002C3C9FFC7A0FED70E0EC9CFDBFF01C353
:10128000C9FFC7A0FED70E0EC9CFDBFF00C3C9FF41
:10129000C7A0FED70D0EC9CFDBFFC96AC7A0FED716
:1012A0008B82050EC9CFDBFF0301002B000E01234B
:1012B000022303238B920E0EC9CFDBFF030EC96EF0
:1012C000C7A0FED70E0EC9CFDBFF02C3C9FFC7A060
:1012D000FED70E0EC9CFDBFF01C3C9FFC7A0FED7E3
:1012E0000E0EC9CFDBFF00C3C9FFC7A0FED70D0E8E
:1012F000C9CFDBFFC96AC7A0FED78B82060EC9CF54
:10130000DBFF040EDBCFE6FF060EDBCFE6FF050EAC
:10131000DBCFE6FF81EC00F0E552E552E552F36ADF
:10132000F46A0EEF0EF00EEF0EF0040EDB506108C3
:1013300001E0B4D0DE6ADE6ADE6ADD6ADD52DD52CB
:10134000070EDB6A080EDB6A070EDBCF1CF0080E07
:10135000DBCF1DF0020E1C5C000E1D5875E2030170
:10136000002B000E0123022303238B920E0EC9CF04
:10137000DBFF030EC96EC7A0FED70E0EC9CFDBFF81
:1013800002C3C9FFC7A0FED70E0EC9CFDBFF01C342
:10139000C9FFC7A0FED70E0EC9CFDBFF00C3C9FF30
:1013A000C7A0FED70D0EC9CFDBFFC96AC7A0FED705
:1013B0008B82C950226E236A080E086E096A070ED6
:1013C000DBCF0DF0080EDBCF0EF029EC1BF0065042
:1013D00022C020F023C021F005E0D890203621362D
:1013E000E804FBE120C008F021C009F02AEC1AF063
:1013F00007C01CF008C01DF009C01EF00AC01FF095
:10140000D9CFE9FFDACFEAFFEECF07F0EECF08F051
:10141000EECF09F0EFCF0AF01CC00CF01DC00DF0AC
:101420001EC00EF01FC00FF040EC1AF00AC0EDFF16
:1014300009C0EDFF08C0EDFF07C0EFFF070EDB2A74
:10144000080E01E3DB2A80D7D9CFE9FFDACFEAFF24
:10145000EECF1EF0EECF1FF0EECF20F0EFCF21F059
:10146000DBC50CF0DCC50DF0DDC50EF0DEC50FF000
:101470001EC007F01FC008F020C009F021C00AF00C
:10148000D6EC1AF047EC1BF008C01CF009C01DF0A8
:101490001CC0F3FF1DC0F4FFC1D3C0D3040EDB504A
:1014A000620825E11E6AC00E1F6E370E206E440EC4
:1014B000216EDBC50CF0DCC50DF0DDC50EF0DEC520
:1014C0000FF01EC007F01FC008F020C009F021C0B7
:1014D0000AF0D6EC1AF047EC1BF008C01CF009C06B
:1014E0001DF01CC0F3FF1DC0F4FF98D397D3040E6A
:1014F000DB50630825E11E6A800E1F6E5C0E206EB5
:10150000440E216EDBC50CF0DCC50DF0DDC50EF020
:10151000DEC50FF01EC007F01FC008F020C009F0A4
:1015200021C00AF0D6EC1AF047EC1BF008C01CF002
:1015300009C01DF01CC0F3FF1DC0F4FF6FD36ED3B4
:10154000040EDB50670801E096D10301002B000E6A
:101550000123022303230301002B000E0123022396
:101560000323070EDB6A080EDB6A070EDBCF1CF0D5
:10157000080EDBCF1DF0040E1C5C000E1D5839E276
:101580000301002B000E01230223032300C3E6FF07
:1015900001C3E6FF02C3E6FF03C3E6FF4BEC01F025
:1015A000E552E552E552E5521C6E1D6A1E6A1F6A3D
:1015B000080E086E096A070EDBCF0DF0080EDBCFB0
:1015C0000EF029EC1BF006501F0B07E0D8901C36DC
:1015D0001D361E361F36E806F9E11C500501F027BE
:1015E0001D500501F123070EDB2A080E01E3DB2A5B
:1015F000BCD70501000ED880F055000EF15501E36F
:1016000018D10501000ED880F055000EF15501E209
:1016100010D10501F25101E00CD1E66A400EE66EF0
:10162000E66AF0C5E6FFF1C5E6FF60EC10F01C6E5F
:10163000050EE15E1C50E76E0B0EE7CFDBFF010EDF
:10164000E66E400EE66EE66AF0C5E6FFF1C5E6FF1F
:1016500060EC10F01C6E050EE15E1C50E76E0C0E87
:10166000E7CFDBFF0C0EDB50000802E20B0EDB2A9B
:10167000070EDB6A080EDB6A070EDBCF1CF0080ED4
:10168000DBCF1DF00B0EDB501E6E1F6A1E501C5C64
:101690001F501D581EE2070EDBCF1CF0080EDBCFDB
:1016A0001DF0060ED8901C361D36E806FBE1000E34
:1016B0001C26300E1D221CC0E6FF1DC0E6FFB2EC4A
:1016C0000FF0E552E552070EDB2A080E01E3DB2A94
:1016D000D3D7E66AE66A010EE66EF0C5E6FFF1C50D
:1016E000E6FF60EC10F01C6E050EE15E1C50E76E2C
:1016F0000B0EE7CFDBFF010EE66EE66A010EE66E2B
:10170000F0C5E6FFF1C5E6FF60EC10F01C6E050EBB
:10171000E15E1C50E76E0C0EE7CFDBFF0C0EDB50DA
:10172000000802E20B0EDB2A090EDB6A0A0EDB6AF6
:10173000090EDBCF1CF00A0EDBCF1DF00B0EDB50C9
:101740001E6E1F6A1E501C5C1F501D5866E2070E5D
:10175000DB6A080EDB6A070EDBCF1CF0080EDBCF5E
:101760001DF0000E1C5C010E1D5828E20301002B29
:10177000000E01230223032300C3E6FF01C3E6FF9B
:1017800002C3E6FF03C3E6FF4BEC01F0E552E5526E
:10179000E552E552E66E070EDBCFE9FF080EDBCF20
:1017A000EAFF0C0EE926030EEA22E552E750EF6E3F
:1017B000070EDB2A080E01E3DB2ACDD70C0EE66EFE
:1017C000030EE66E090EDBCF1CF00A0EDBCF1DF018
:1017D0001CC01DF01C6A000E1C26300E1D221CC0F1
:1017E000E6FF1DC0E6FFD0EC0FF0E552E552E552F2
:1017F000E552E66A010EE66EE66A0C0EE66E030E30
:10180000E66E6FEC1CF01C6E050EE15E1C50090EBE
:10181000DB2A0A0E01E3DB2A8BD70501EE6BEF6BA7
:10182000010EE66EB1EC10F0E5520501010EF26F0B
:101830001ED00501F25110E100C3D4F501C3D5F566
:1018400002C3D6F503C3D7F5D4C504F3D5C505F354
:10185000D6C506F3D7C507F30501F05103010027EC
:101860000501F15103010123000E02230323F36A52
:10187000F46AD4D1D3D1700EF36E040EDBCFF4FF33
:10188000F350F45C41E3040EDB507F083DE3040EAB
:10189000DB500F0B010F1C6E1CC009F019EC1AF085
:1018A00007C0DEFF08C0DEFF09C0DEFF0AC0DDFFA3
:1018B000DD52DD52D9CFE9FFDACFEAFFEECF1EF0DD
:1018C000EECF1FF0EECF20F0EFCF21F0DBC50CF014
:1018D000DCC50DF0DDC50EF0DEC50FF01EC007F053
:1018E0001FC008F020C009F021C00AF0D6EC1AF0A1
:1018F00047EC1BF008C01CF009C01DF01CC0F3FF32
:101900001DC0F4FF8BD18AD1800EF36E040EDBCFA5
:10191000F4FFF350F45C01E297D0040EDB508F0823
:1019200001E292D0040EDB500F0B1C6E1CC009F0BC
:1019300019EC1AF007C0DEFF08C0DEFF09C0DEFFA9
:101940000AC0DDFFDD52DD522A0EF36E050EF3CF25
:10195000DBFF0501F25113E00501EE2B000EEF2332
:10196000000E0501EE25F66E300E0501EF21F76E33
:10197000F86A0D000A00060EF5CFDBFF2DD003013B
:10198000042B000E0523062307238B920E0EC9CFCE
:10199000DBFF030EC96EC7A0FED70E0EC9CFDBFF5B
:1019A00006C3C9FFC7A0FED70E0EC9CFDBFF05C314
:1019B000C9FFC7A0FED70E0EC9CFDBFF04C3C9FF06
:1019C000C7A0FED70D0EC9CFDBFFC96AC7A0FED7DF
:1019D0008B82060EC9CFDBFF040EDBCFE6FF060EBF
:1019E000DBCFE6FF050EDBCFE6FF81EC00F0E55232
:1019F000E552E552D9CFE9FFDACFEAFFEECF1EF08C
:101A0000EECF1FF0EECF20F0EFCF21F0DBC50CF0D2
:101A1000DCC50DF0DDC50EF0DEC50FF01EC007F011
:101A20001FC008F020C009F021C00AF0D6EC1AF05F
:101A300047EC1BF008C01CF009C01DF01CC0F3FFF0
:101A40001DC0F4FFEBD0EAD0040EDB50E00801E04B
:101A5000D4D00501F25162E00501EE6BEF6B070E89
:101A6000DB6A080EDB6A070EDBCF1CF0080EDBCF4B
:101A70001DF0040E1C5C000E1D584FE20301002BEC
:101A8000000E0123022303238B920E0EC9CFDBFF2E
:101A9000030EC96EC7A0FED70E0EC9CFDBFF02C36F
:101AA000C9FFC7A0FED70E0EC9CFDBFF01C3C9FF18
:101AB000C7A0FED70E0EC9CFDBFF00C3C9FFC7A06A
:101AC000FED70D0EC9CFDBFFC96AC7A0FED78B8238
:101AD000C9501E6E1F6A080E086E096A070EDBCF1A
:101AE0000DF0080EDBCF0EF029EC1BF006501EC0E7
:101AF0001CF01FC01DF005E0D8901C361D36E80410
:101B0000FBE11C500501EE271D500501EF23070ED8
:101B1000DB2A080E01E3DB2AA6D76BD0D4C504F379
:101B2000D5C505F3D6C506F3D7C507F3070EDB6A9F
:101B3000080EDB6A070EDBCF1CF0080EDBCF1DF0B2
:101B4000040E1C5C000E1D5854E20301002B000E15
:101B50000123022303238B920E0EC9CFDBFF030E5A
:101B6000C96EC7A0FED70E0EC9CFDBFF02C3C9FFE7
:101B7000C7A0FED70E0EC9CFDBFF01C3C9FFC7A0A8
:101B8000FED70E0EC9CFDBFF00C3C9FFC7A0FED72B
:101B90000D0EC9CFDBFFC96AC7A0FED78B82C95023
:101BA0001E6E1F6A080E086E096A070EDBCF0DF065
:101BB000080EDBCF0EF029EC1BF006501EC01CF007
:101BC0001FC01DF005E0D8901C361D36E804FBE16F
:101BD00000011C500301042700011D5003010523CF
:101BE000000E06230723070EDB2A080E01E3DB2A7B
:101BF000A1D7F36AF46A12D011D0040EDB50660844
:101C00000AE103013F0E006F016B026B036BF36A85
:101C1000F46A04D003D0F36AF46A00D00F0EE15CDA
:101C200002E2E16AE552E16EE552E7CFD9FF120028
:101C3000D9CFE6FFE1CFD9FF060EE126DF6A010E1C
:101C4000DB6A020EDB6A030EDB6A040EDB6A010E3E
:101C5000F36E050EF3CFDBFF050EDB5001E178D10B
:101C60000301002B000E01230223032300C3E6FF20
:101C700001C3E6FF02C3E6FF03C3E6FF4BEC01F03E
:101C8000E552E552E552E552DF6EDF50660A01E1AA
:101C900050D1860A01E1F5D0600A01E1F1D0010AD4
:101CA00001E1EED0030A01E1EBD0010A01E1E8D045
:101CB000070A01E1E5D0010A01E1E2D0030A01E1EE
:101CC000DFD0010A01E1DCD00F0A01E1D9D0010A1D
:101CD00001E1D6D0030A01E1D3D0010A01E1D0D05D
:101CE000070A01E1CDD0010A01E1CAD0030A01E1EE
:101CF000C7D0010A01E1C4D0FF0A01E1C0D0010A46
:101D000001E1BDD0030A01E1BAD0010A01E1B7D077
:101D1000070A01E1B4D0010A01E1B1D0030A01E1EF
:101D2000AED0010A01E1ABD00F0A01E1A8D0010A4F
:101D300001E1A5D0030A01E1A2D0010A01E19FD08F
:101D4000070A01E19CD0010A01E199D0030A01E1EF
:101D500096D0010A01E193D0180A34E0050A31E077
:101D6000010A2FE0020A22E0330A15E0010A13E01B
:101D7000030A0AE01F0A01E0EAD00301002B000E6B
:101D8000012302230323E3D00301002B000E0123D0
:101D900002230323DCD00301002B000E01230223C6
:101DA0000323002B012302230323D1D00301002BA3
:101DB000000E012302230323002B0123022303230C
:101DC000C6D0C5D00301002B000E0123022303233C
:101DD000002B012302230323010EDB6A020EDB6AC0
:101DE000010EDBCF1CF0020EDBCF1DF0040E1C5CDD
:101DF000000E1D5838E20301002B000E01230223C0
:101E0000032300C3E6FF01C3E6FF02C3E6FF03C3EB
:101E1000E6FF4BEC01F0E552E552E552E5521C6E4F
:101E20001D6A1E6A1F6A080E086E096A010EDBCF62
:101E30000DF0020EDBCF0EF029EC1BF006501F0B4D
:101E400007E0D8901C361D361E361F36E806F9E12D
:101E50001C500501F0271D50F123010EDB2A020E54
:101E600001E3DB2ABDD70501F0510301002705017D
:101E7000F15103010123000E0223032368D067D030
:101E800066D0010EDB6A020EDB6A010EDBCF1CF0AE
:101E9000020EDBCF1DF0040E1C5C000E1D5844E248
:101EA0000301002B000E01230223032300C3E6FFDE
:101EB00001C3E6FF02C3E6FF03C3E6FF4BEC01F0FC
:101EC000E552E552E552E5521E6E1F6A080E086E95
:101ED000096A010EDBCF0DF0020EDBCF0EF029EC0C
:101EE0001BF006501EC01CF01FC01DF005E0D8906E
:101EF0001C361D36E804FBE1EEC5E9FFEFC5EAFF3D
:101F0000010ED890E936EA36E806FBE10C0EE92628
:101F1000050EEA221C50EE261D50ED22010EDB2A92
:101F2000020E01E3DB2AB1D70501EE2B000EEF23F1
:101F30000ED003013F0E006F016B026B036B0501B6
:101F4000F06BF16BEE6BEF6B050EDB6A00D084D6A5
:101F5000060EE15C02E2E16AE552E16EE552E7CF8E
:101F6000D9FF1200D9CFE6FFE1CFD9FFFD0EDBCFBD
:101F7000F6FFFE0EDBCFF7FFF86AA68EA69CA684BE
:101F8000A688F29E550EA76EAA0EA76EA682A6B2CE
:101F9000FED70000F28EA694E552E7CFD9FF1200DB
:101FA000D9CFE6FFE1CFD9FF030EE126DF6A010EAC
:101FB000DB6A020EDB6AFD0EDBCFF6FFFE0EDBCF27
:101FC000F7FFF86AA694010EDB6A020EDB6A010EC7
:101FD000DBCF1CF0020EDBCF1DF0000E1C5C010EEF
:101FE0001D5840E2DF6A080EDF5C19E2DF50E76E41
:101FF000010EDBCF1CF0020EDBCF1DF0E7501C26DC
:10200000000E1D22FB0EDB501C24E96EFC0EDB5083
:102010001D20EA6EEF50F56E0D00DF2AE4D70A00AE
:10202000A68EA69CA684F29E550EA76EAA0EA76E3B
:10203000A682A6B2FED70000A694F28E0900080E72
:10204000E76E010EDBCF1CF0020EDBCF1DF0E75078
:102050001C26000E1D22010E1CC0DBFF020E1DC03F
:10206000DBFFB5D7030EE15C02E2E16AE552E16E07
:10207000E552E7CFD9FF1200D9CFE6FFE1CFD9FF74
:10208000020EE126DF6A010EDB6AF29EFD0EDBCF57
:10209000F6FFFE0EDBCFF7FFF86A0D000A00F550E1
:1020A000DF6EF28EDF5000D01C6E020EE15C02E2A9
:1020B000E16AE552E16E1C50E552E7CFD9FF12000C
:1020C000D9CFE6FFE1CFD9FF020EE126DF6A010E8C
:1020D000DB6AFD0EDBCF08F0FE0EDBCF09F0FB0E56
:1020E000DBCF0DF0FC0EDBCF0EF089EC1CF00850BE
:1020F000DF6EFD0EDBCF08F0FE0EDBCF09F0FB0E2E
:10210000DBCF0DF0FC0EDBCF0EF089EC1CF0010EE6
:1021100004C0DBFFFA0EDB5003E1DF5004D003D034
:10212000010EDB5000D01C6E020EE15C02E2E16A9F
:10213000E552E16E1C50E552E7CFD9FF1200D9CF2E
:10214000E6FFE1CFD9FFE652A96AA69EA69CA6802B
:10215000A850DF6EDF5000D0E552E552E7CFD9FF3F
:102160001200D9CFE6FFE1CFD9FFA96AFE0EDB50FE
:10217000A86EA69EA69CA684F29E550EA76EAA0ED9
:10218000A76EA682A6B2FED7F28EA694E552E7CF3E
:10219000D9FF1200DACFE4FFE2CFDAFFE9CFE4FFA4
:1021A000EACFE4FFE652D9CFE6FFE1CFD9FFE6520E
:1021B0009EAA2DD0060EAB140CE00501E62B000EF6
:1021C000E723AB9AAE50DF6EAB8AE42B000EE5231B
:1021D0001DD00501E15109E00C0EE225E96E030E68
:1021E000E321EA6EAECFEFFF08D00C0EE225E96ED8
:1021F000040EE321EA6EAECFEFFFE22B000EE323E5
:10220000E82BE923EA23EB23E42BE5239E9AF2A4AF
:1022100008D0D6680501F32B000EF423F523F6232E
:10222000F294E552E552E7CFD9FFE552E5CFEAFF58
:10223000E5CFE9FFE5CFDAFF1100D8CFE4FFE0CF2B
:10224000E4FFE46EDACFE4FFE2CFDAFFE9CFE4FFA8
:10225000EACFE4FFF6CFE4FFF7CFE4FFF8CFE4FFE7
:10226000F5CFE4FFF3CFE4FFF4CFE4FFFACFE4FFD0
:1022700000EE00F0140EE80403E3EECFE4FFFBD71A
:1022800000EE1CF0080EE80403E3EECFE4FFFBD7FA
:10229000E652D9CFE6FFE1CFD9FF0F0EE1269EA28D
:1022A00006EF17F0DE6ADE6ADE6ADD6ADD52DD52B5
:1022B000040EDB6A050EDB6A060EDB6A070EDB6ABC
:1022C000080EDB6A090EDB6A0A0EDB6A0B0EDB6A9C
:1022D0000C0EDB6A0D0EDB6A0501000ED880D855A6
:1022E000000ED95504E20501D807000ED95B05019F
:1022F000D851D91102E004EF17F00501DA0502E028
:1023000004EF17F00501DA6B0301002B000E012327
:10231000022303238B920E0EC9CFDBFF030EC96E7F
:10232000C7A0FED70E0EC9CFDBFF02C3C9FFC7A0EF
:10233000FED70E0EC9CFDBFF01C3C9FFC7A0FED772
:102340000E0EC9CFDBFF00C3C9FFC7A0FED70D0E1D
:10235000C9CFDBFFC96AC7A0FED78B82040EC9CFE5
:10236000DBFF040EDB504F083DE10301002B000EA4
:10237000012302230323060EE66E4AEC00F0E55229
:102380008B920E0EC9CFDBFF030EC96EC7A0FED71E
:102390000E0EC9CFDBFF02C3C9FFC7A0FED70E0ECA
:1023A000C9CFDBFF01C3C9FFC7A0FED70E0EC9CF3F
:1023B000DBFF00C3C9FFC7A0FED70D0EC9CFDBFFEF
:1023C000C96AC7A0FED78B820D0EC9CFDBFF0D0EE9
:1023D000DBCFE6FF4AEC00F0E5520501D86BD96B84
:1023E00001EF17F0040EDB50500838E10301002B19
:1023F000000E0123022303238B920E0EC9CFDBFFB5
:10240000030EC96EC7A0FED70E0EC9CFDBFF02C3F5
:10241000C9FFC7A0FED70E0EC9CFDBFF01C3C9FF9E
:10242000C7A0FED70E0EC9CFDBFF00C3C9FFC7A0F0
:10243000FED70D0EC9CFDBFFC96AC7A0FED78B82BE
:102440000D0EC9CFDBFF0D0EDBCFE6FF4AEC00F02F
:10245000E5520501D86BD96B01EF17F0040EDB5084
:10246000520804E0040EDB5053086DE10301002B19
:10247000000E0123022303238B920E0EC9CFDBFF34
:10248000030EC96EC7A0FED70E0EC9CFDBFF02C375
:10249000C9FFC7A0FED70E0EC9CFDBFF01C3C9FF1E
:1024A000C7A0FED70E0EC9CFDBFF00C3C9FFC7A070
:1024B000FED70D0EC9CFDBFFC96AC7A0FED78B823E
:1024C000050EC9CFDBFF0301002B000E0123022301
:1024D00003238B920E0EC9CFDBFF030EC96EC7A07C
:1024E000FED70E0EC9CFDBFF02C3C9FFC7A0FED7C0
:1024F0000E0EC9CFDBFF01C3C9FFC7A0FED70E0E6A
:10250000C9CFDBFF00C3C9FFC7A0FED70D0EC9CFDF
:10251000DBFFC96AC7A0FED78B82060EC9CFDBFFDF
:10252000040EDBCFE6FF060EDBCFE6FF050EDBCFAA
:10253000E6FF81EC00F0E552E552E5520501D86B6B
:10254000D96B01EF17F0040EDB50610801E0AFD04A
:10255000DE6ADE6ADE6ADD6ADD52DD52070EDB6AA4
:10256000080EDB6A070EDBCF14F0080EDBCF15F088
:10257000020E145C000E155875E20301002B000ECC
:102580000123022303238B920E0EC9CFDBFF030E20
:10259000C96EC7A0FED70E0EC9CFDBFF02C3C9FFAD
:1025A000C7A0FED70E0EC9CFDBFF01C3C9FFC7A06E
:1025B000FED70E0EC9CFDBFF00C3C9FFC7A0FED7F1
:1025C0000D0EC9CFDBFFC96AC7A0FED78B82C950E9
:1025D0001A6E1B6A080E086E096A070EDBCF0DF033
:1025E000080EDBCF0EF029EC1BF006501AC018F0D5
:1025F0001BC019F005E0D89018361936E804FBE145
:1026000018C008F019C009F02AEC1AF007C014F03D
:1026100008C015F009C016F00AC017F0D9CFE9FFBD
:10262000DACFEAFFEECF07F0EECF08F0EECF09F0F9
:10263000EFCF0AF014C00CF015C00DF016C00EF06C
:1026400017C00FF040EC1AF00AC0EDFF09C0EDFF13
:1026500008C0EDFF07C0EFFF070EDB2A080E01E3FD
:10266000DB2A80D7D9CFE9FFDACFEAFFEECF14F02B
:10267000EECF15F0EECF16F0EFCF17F0DBC50CF074
:10268000DCC50DF0DDC50EF0DEC50FF014C007F09F
:1026900015C008F016C009F017C00AF0D6EC1AF001
:1026A00047EC1BF008C0D8F509C0D9F5AAD3040E31
:1026B000DB50620820E1146AC00E156E370E166EEC
:1026C000440E176EDBC50CF0DCC50DF0DDC50EF059
:1026D000DEC50FF014C007F015C008F016C009F0F1
:1026E00017C00AF0D6EC1AF047EC1BF008C0D8F57A
:1026F00009C0D9F586D3040EDB50630820E1146AC3
:10270000800E156E5C0E166E440E176EDBC50CF057
:10271000DCC50DF0DDC50EF0DEC50FF014C007F00E
:1027200015C008F016C009F017C00AF0D6EC1AF070
:1027300047EC1BF008C0D8F509C0D9F562D3040EE8
:10274000DB50670801E094D10301002B000E012348
:10275000022303230301002B000E01230223032382
:10276000070EDB6A080EDB6A070EDBCF14F0080EDB
:10277000DBCF15F0040E145C000E155839E203018E
:10278000002B000E01230223032300C3E6FF01C335
:10279000E6FF02C3E6FF03C3E6FF4BEC01F0E552A0
:1027A000E552E552E552146E156A166A176A080E6C
:1027B000086E096A070EDBCF0DF0080EDBCF0EF0B6
:1027C00029EC1BF006501F0B07E0D8901436153685
:1027D00016361736E806F9E114500501F0271550B2
:1027E0000501F123070EDB2A080E01E3DB2ABCD723
:1027F0000501000ED880F055000EF15501E316D109
:102800000501000ED880F055000EF15501E20ED101
:102810000501F25101E00AD1E66A400EE66EE66A71
:10282000F0C5E6FFF1C5E6FF4BDC146E050EE15E78
:102830001450E76E0B0EE7CFDBFF010EE66E400E85
:10284000E66EE66AF0C5E6FFF1C5E6FF39DC146E18
:10285000050EE15E1450E76E0C0EE7CFDBFF0C0EA9
:10286000DB50000802E20B0EDB2A070EDB6A080EC3
:10287000DB6A070EDBCF14F0080EDBCF15F00B0E72
:10288000DB50166E176A1650145C175015581EE26E
:10289000070EDBCF14F0080EDBCF15F0060ED89034
:1028A00014361536E806FBE1000E1426300E15220C
:1028B00014C0E6FF15C0E6FFB2EC0FF0E552E5529A
:1028C000070EDB2A080E01E3DB2AD3D7E66AE66AA5
:1028D000010EE66EF0C5E6FFF1C5E6FF60EC10F014
:1028E000146E050EE15E1450E76E0B0EE7CFDBFFB2
:1028F000010EE66EE66A010EE66EF0C5E6FFF1C572
:10290000E6FF60EC10F0146E050EE15E1450E76E09
:102910000C0EE7CFDBFF0C0EDB50000802E20B0EC3
:10292000DB2A090EDB6A0A0EDB6A090EDBCF14F024
:102930000A0EDBCF15F00B0EDB50166E176A165021
:10294000145C1750155866E2070EDB6A080EDB6A46
:10295000070EDBCF14F0080EDBCF15F0000E145C71
:10296000010E155828E20301002B000E012302235B
:10297000032300C3E6FF01C3E6FF02C3E6FF03C370
:10298000E6FF4BEC01F0E552E552E552E552E66E0A
:10299000070EDBCFE9FF080EDBCFEAFF0C0EE926BE
:1029A000030EEA22E552E750EF6E070EDB2A080E0F
:1029B00001E3DB2ACDD70C0EE66E030EE66E090EA0
:1029C000DBCF14F00A0EDBCF15F014C015F0146A3B
:1029D000000E1426300E152214C0E6FF15C0E6FFC7
:1029E000D0EC0FF0E552E552E552E552E66A010EF1
:1029F000E66EE66A0C0EE66E030EE66E6FEC1CF0F9
:102A0000146E050EE15E1450090EDB2A0A0E01E376
:102A1000DB2A8BD70501EE6BEF6B010EE66EB1EC96
:102A200010F0E5520501010EF26F1ED00501F251C2
:102A300010E100C3D4F501C3D5F502C3D6F503C335
:102A4000D7F5D4C504F3D5C505F3D6C506F3D7C568
:102A500007F30501F051030100270501F1510301BE
:102A60000123000E022303230501D86BD96BC9D1C2
:102A7000700EF36E040EDBCFF4FFF350F45C3CE316
:102A8000040EDB507F0838E3040EDB500F0B010F00
:102A9000146E14C009F019EC1AF007C0DEFF08C06C
:102AA000DEFF09C0DEFF0AC0DDFFDD52DD52D9CFF7
:102AB000E9FFDACFEAFFEECF14F0EECF15F0EECF5C
:102AC00016F0EFCF17F0DBC50CF0DCC50DF0DDC55F
:102AD0000EF0DEC50FF014C007F015C008F016C0E8
:102AE00009F017C00AF0D6EC1AF047EC1BF008C04A
:102AF000D8F509C0D9F585D1800EF36E040EDBCF71
:102B0000F4FFF350F45C01E292D0040EDB508F0826
:102B100001E28DD0040EDB500F0B146E14C009F0CF
:102B200019EC1AF007C0DEFF08C0DEFF09C0DEFFA7
:102B30000AC0DDFFDD52DD522A0EF36E050EF3CF23
:102B4000DBFF0501F25113E00501EE2B000EEF2330
:102B5000000E0501EE25F66E300E0501EF21F76E31
:102B6000F86A0D000A00060EF5CFDBFF2DD0030139
:102B7000042B000E0523062307238B920E0EC9CFCC
:102B8000DBFF030EC96EC7A0FED70E0EC9CFDBFF59
:102B900006C3C9FFC7A0FED70E0EC9CFDBFF05C312
:102BA000C9FFC7A0FED70E0EC9CFDBFF04C3C9FF04
:102BB000C7A0FED70D0EC9CFDBFFC96AC7A0FED7DD
:102BC0008B82060EC9CFDBFF040EDBCFE6FF060EBD
:102BD000DBCFE6FF050EDBCFE6FF81EC00F0E55230
:102BE000E552E552D9CFE9FFDACFEAFFEECF14F094
:102BF000EECF15F0EECF16F0EFCF17F0DBC50CF0EF
:102C0000DCC50DF0DDC50EF0DEC50FF014C007F019
:102C100015C008F016C009F017C00AF0D6EC1AF07B
:102C200047EC1BF008C0D8F509C0D9F5EAD0040E6E
:102C3000DB50E00801E0D4D00501F25162E005016B
:102C4000EE6BEF6B070EDB6A080EDB6A070EDBCF5D
:102C500014F0080EDBCF15F0040E145C000E1558AE
:102C60004FE20301002B000E0123022303238B926A
:102C70000E0EC9CFDBFF030EC96EC7A0FED70E0E26
:102C8000C9CFDBFF02C3C9FFC7A0FED70E0EC9CF55
:102C9000DBFF01C3C9FFC7A0FED70E0EC9CFDBFF04
:102CA00000C3C9FFC7A0FED70D0EC9CFDBFFC96A9D
:102CB000C7A0FED78B82C950166E176A080E086E21
:102CC000096A070EDBCF0DF0080EDBCF0EF029EC02
:102CD0001BF0065016C014F017C015F005E0D89090
:102CE00014361536E804FBE114500501EE271550A3
:102CF0000501EF23070EDB2A080E01E3DB2AA6D726
:102D00006BD0D4C504F3D5C505F3D6C506F3D7C536
:102D100007F3070EDB6A080EDB6A070EDBCF14F041
:102D2000080EDBCF15F0040E145C000E155854E2AB
:102D30000301002B000E0123022303238B920E0EAE
:102D4000C9CFDBFF030EC96EC7A0FED70E0EC9CFD9
:102D5000DBFF02C3C9FFC7A0FED70E0EC9CFDBFF42
:102D600001C3C9FFC7A0FED70E0EC9CFDBFF00C34A
:102D7000C9FFC7A0FED70D0EC9CFDBFFC96AC7A028
:102D8000FED78B82C950166E176A080E086E096A44
:102D9000070EDBCF0DF0080EDBCF0EF029EC1BF099
:102DA000065016C014F017C015F005E0D890143680
:102DB0001536E804FBE1000114500301042700016B
:102DC000155003010523000E06230723070EDB2AF7
:102DD000080E01E3DB2AA1D70501D86BD96B11D00E
:102DE000040EDB5066080AE103013F0E006F016B21
:102DF000026B036B0501D86BD96B03D00501D86B4F
:102E0000D96B0501010EDA6F8D729E920F0EE15C97
:102E100002E2E16AE552E16EE552E7CFD9FFE55201
:102E200000EE23F0080EE80403E3E5CFEDFFFBD747
:102E300000EE13F0140EE80403E3E5CFEDFFFBD73B
:102E4000E5CFFAFFE5CFF4FFE5CFF3FFE5CFF5FFE0
:102E5000E5CFF8FFE5CFF7FFE5CFF6FFE5CFEAFFD7
:102E6000E5CFE9FFE5CFDAFFE550E5CFE0FFE5CFBD
:102E7000D8FF1000D9CFE6FFE1CFD9FF0E0EE12633
:102E8000030EDB6A040EDB6A050EDB6A060EDB6AE4
:102E9000070EDB6A080EDB6A090EDB6A0A0EDB6AC4
:102EA0000B0EDB6A0C0EDB6A0D0EDB6AE66A010EA6
:102EB000E66EE66A0C0EE66E030EE66E6FEC1CF034
:102EC0001C6E050EE15E1C50E66A010EE66EE66AB7
:102ED0000C0EE66E040EE66E6FEC1CF01C6E050E1A
:102EE000E15E1C50ABEC00F009EC01F0BFEC02F02D
:102EF0005DEC00F09FEC10F00501F26FFF0EF25D4B
:102F000001E1F26B03013F0E006F016B026B036B7B
:102F1000046B056B066B076B0F0E89168C6ACA84EF
:102F200080B203D080A2FED7CA84640E03010C5D78
:102F300001E073D20C5102E0000E01D0010ECA94E0
:102F40005DEC00F00501E86BE96BEA6BEB6BE46BA1
:102F5000E56BE26BE36B100EE66EC9EC02F0E55236
:102F6000030E0501E85D000EE959000EEA59000E56
:102F7000EB5901E2F5D70EC308F30301096B0A6BA5
:102F80000B6B080E1F0B08C31CF009C31DF00AC30E
:102F90001EF00BC31FF007E0D8901C361D361E36FE
:102FA0001F36E806F9E10DC320F0216A226A236A80
:102FB0001C5020100301086F1D502110096F1E5076
:102FC00022100A6F1F5023100B6F080E1F0B08C32F
:102FD0001CF009C31DF00AC31EF00BC31FF007E06D
:102FE000D8901C361D361E361F36E806F9E10CC394
:102FF00020F0216A226A236A1C5020100301086F06
:103000001D502110096F1E5022100A6F1F502310EF
:103010000B6F08C306F009C307F00AC308F00BC31F
:1030200009F00B6A010E0C6E0D6A0E6A4BEC1CF077
:10303000070E02C0DBFF080E03C0DBFF08C306F06B
:1030400009C307F00AC308F00BC309F00B6A010EAD
:103050000C6E0D6A0E6A4BEC1CF0090E06C0DBFF0D
:103060000A0E07C0DBFFE66A010EE66EE66A0C0E8A
:10307000E66E030EE66E6FEC1CF01C6E050EE15E54
:103080001C50E66A010EE66EE66A0C0EE66E040E51
:10309000E66E6FEC1CF01C6E050EE15E1C50010E1E
:1030A000DF6E0501E16FE86BE96BEA6BEB6BE46BDC
:1030B000E56BE26BE36B0B0EDB6A0C0EDB6A030164
:1030C000006B016B026B036B08C306F009C307F0CA
:1030D0000AC308F00BC309F00B680C680D6A0E6A8E
:1030E0004BEC1CF0D880000E0654000E0754000E66
:1030F0000854000E095424E208C31CF009C31DF053
:103100000AC31EF00BC31FF00B680C680D6A0E6A31
:103110001CC006F01DC007F01EC008F01FC009F05B
:103120004BEC1CF006C01CF007C01DF008C01EF0E0
:1031300009C01FF01C2A000E1D221E221F2204D0CF
:103140001C6A1D6A1E6A1F6A0D0E1CC0DBFF010E81
:10315000DB6A020EDB6A010EDBCF1CF0020EDBCF56
:103160001DF00D0EDB501E6E1F6A1C501E5C1D50A4
:103170001F581BE300C3E6FF01C3E6FF02C3E6FFDF
:1031800003C3E6FFE4EC01F0E552E552E552E552F7
:10319000FF0E030100270123000E02230323010E6B
:1031A000DB2A020E01E3DB2AD6D70301006B016B99
:1031B000026B036BF00EE66EC9EC02F0E552DF50D5
:1031C00001E11AD10501E651E7111AE0E45102E1EB
:1031D000010EE51915E1E66BE76BE907000EEA5B06
:1031E000EB5B030EDB2A040E01E3DB2A0B0EDB068E
:1031F0000C0E01E2DB06010EAD6E9EA8FED7FBD0E1
:10320000E45102E1010EE5191CE00B0EDBCF1CF0CE
:103210000C0EDBCF1DF0090EDB501C1803E10A0E6B
:10322000DB501D1801E0E7D0070EDBCF1EF0080EC3
:10323000DBCF1FF0E4511E1802E1E5511F1801E039
:10324000DAD00B0EDBCF1CF00C0EDBCF1DF0090E1D
:10325000DB501C1803E10A0EDB501D1819E1070EA4
:10326000DBCF1EF0080EDBCF1FF0E4511E1802E189
:10327000E5511F180DE1070EDBCF08F0080EDBCF7C
:1032800009F0050E08C0DBFF060E09C0DBFF07D002
:10329000050EDB6A010EF36E060EF3CFDBFFE15184
:1032A00002E0000E01D0010EE16FE46BE56BE26B12
:1032B000E36B0B0EDB2A0C0E01E3DB2A0B0EDBCFDC
:1032C0001CF00C0EDBCF1DF0090EDBCF1EF00A0E3A
:1032D000DBCF1FF01C501E5C1D501F5804E3020E74
:1032E000AD6E9EA8FED70501E15113E10C0EE66E0E
:1032F000030EE66E00C3E6FF01C3E6FF02C3E6FF6E
:1033000003C3E6FF0FEC02F01C6E060EE15E1C50DC
:1033100012D00C0EE66E040EE66E00C3E6FF01C38B
:10332000E6FF02C3E6FF03C3E6FF0FEC02F01C6EEC
:10333000060EE15E1C50050EDBCF1CF0060EDBCF47
:103340001DF000011C500301002700011D50030166
:103350000123000E02230323080EE96E030EEA6E1A
:10336000EE500501E81909E1EE50E91906E1EE50C9
:10337000EA1903E1EE50EB1900E13DE10B0EDBCF62
:103380001CF00C0EDBCF1DF0090EDBCF1EF00A0E79
:10339000DBCF1FF01E501C5C1F501D582CE3DF6A52
:1033A000010EE16FE46BE56BE26BE36B020EAD6E59
:1033B0009EA8FED70301006B016B026B036BE66AEC
:1033C000010EE66EE66A0C0EE66E030EE66E6FEC1C
:1033D0001CF01C6E050EE15E1C50E66A010EE66EE6
:1033E000E66A0C0EE66E040EE66E6FEC1CF01C6EC8
:1033F000050EE15E1C50E3D603013F0E006F016B2A
:10340000026B036B046B056B066B076BCA84E66A81
:10341000B1EC10F0E5520501F26B8D7481D50E0E02
:10342000E15C02E2E16AE552E16EE552E7CFD9FFE5
:02343000120088
:0E343200019E05D0019E09AE02D0096C018EEC
:1034400009C003F0026A136A126A860E046E056AE6
:1034500092EF1BF0019E08D0019E09AE05D0086CCA
:10346000091EE86A0922018E09C003F008C002F0B3
:10347000136A126A8E0E046E056A92EF1BF00F7EBD
:10348000016ACEEC1BF0E6EC1BF001B676EF1BF008
:1034900001A20AD001AA03D001BE76EF1BF001A45D
:1034A00082EF1BF07FEF1BF001AA05D001AC82EF89
:1034B0001BF07FEF1BF001A00AD001A808D001BECD
:1034C00004D001A402D08BEF1BF08FEF1BF0126A27
:1034D000056A0F500A5C116E10E307C013F008C0B4
:1034E00002F009C003F00AC010F00CC007F00DC0D4
:1034F00008F00EC009F0013A09D00CC013F00DC05D
:1035000002F00EC003F00FC010F0116C019E01BC60
:10351000018E10C004F001B0BEEF1BF01A0E116056
:10352000BEEF1BF0046A0A6A01A408D0076C081EEB
:10353000091E0A1EE86A082209220A2201AC08D0E4
:10354000136C021E031E041EE86A022203220422D8
:10355000066A115207E00A3409320832073206328D
:10356000112EF9D7075013260850022209500322C2
:103570000A50042206C012F0019E04AE0BD0126C59
:10358000131E021E031E041EE86A132202220322D7
:103590000422018E04A006D0D880033202321332F6
:1035A0001232102A10C004F092EF1BF0016ACEEC28
:1035B0001BF0E6EC1BF001B676EF1BF001A205D084
:1035C00001BA76EF1BF07DEF1BF001BA89EF1BF01B
:1035D00001A005D001B876EF1BF089EF1BF001B810
:1035E0007DEF1BF0056A7F0E0A24046EE86A05224F
:1035F0000F50045EE86A055A1A0E106E0A6A126AC3
:10360000136A026A036A0C50075E0D50085A0E5086
:10361000095A000E0A5A09E70C5007260D500822D5
:103620000E500922000E0A2201D0128AD8900736C5
:10363000083609360A36D890123613360236033663
:10364000102EE1D7095008100710D8A4128A92EF63
:103650001BF008C012F008500D02F4CF07F0F3CFB2
:1036600006F009500E02F4CF09F0F3CF08F00D0276
:10367000F3500726F4500822E86A092212500E027D
:10368000F3500726F4500822E86A0922000C016A68
:10369000CEEC1BF001B651EF1BF001A20ED001B42D
:1036A00005D07F0E096EFF0E086E1FD0800E096ECA
:1036B000086A1BD0096A086A18D001B0FBD78F0EC0
:1036C0000A60EDD77E0E0A64F5D78E0E0A5C05E01F
:1036D000D890093208320A2AF8D701A406D0086C1B
:1036E000091EE86A092209AEE5D712007F0E0A6EAC
:1036F000FF0E096E086E076E12007F0E01BEFF0EF0
:103700000A6E02D07F0E0A6E800E096E086A076A82
:10371000F3D701AE04D0800E0A6E096AF7D70A6AA1
:10372000096AF4D70350021013101210F8E005BE16
:10373000F0D703BE0CD004500510EBE0D890123641
:103740001336023603360406D8A00506F2D7055014
:10375000D4E10428D2E012AE11D07F0E121402E19F
:1037600013A00CD0132AE86A0222032207E3D880B0
:10377000033202321332042A0428BFE00450C9E0A5
:1037800013C007F002C008F00334096E04300A6E5B
:1037900009320A9E01BE0A8E7CEF1BF009360A36FA
:1037A00002E30184017E06E101800A6A096A086A6F
:1037B000076A12000A2803E0D88009321200D89064
:1037C000093202E101821200018612000E360F3624
:1037D00002E3018C017E06E101880F6A0E6A0D6A20
:1037E0000C6A12000F2803E0D8800E321200D89025
:0837F0000E32EAE1018A120029
:0837F8001E0EF66E000EF76EC6
:10380000000EF86E00010900F550856F0900F550B3
:10381000866F03E1856701D03DD00900F550806FC8
:103820000900F550816F0900F550826F0900090009
:10383000F550E96E0900F550EA6E0900090009002B
:10384000F550836F0900F550846F09000900F6CF29
:1038500087F0F7CF88F0F8CF89F080C0F6FF81C0FD
:10386000F7FF82C0F8FF0001835302E1845307E0B1
:103870000900F550EE6E8307F8E28407F9D787C098
:10388000F6FF88C0F7FF89C0F8FF00018507000E2A
:06389000865BBFD71200A9
:0A389600056A046A036A026A200E44
:1038A000E76ED890063607360836093602360336F4
:1038B000043605360B50025C0C5003580D5004586A
:1038C0000E50055809E30B50025E0C50035A0D5080
:0E38D000045A0E50055A062AE72EE4D71200BD
:0238DE00FE0EDC
:1038E000E3CFE9FFFF0EE3CFEAFFE9CFF3FFEACF33
:1038F000F4FFFB0EE35003E1FC0EE35009E0FB0E86
:10390000E30602E2FC0EE306FD0EE350EE6EF1D795
:023910001200A3
:0E391200056A046A100EE76ED8900836093672
:10392000043605360D50045C0E50055805E30D5065
:0E393000045E0E50055A082AE72EF0D712004A
:02393E00FF0E7A
:10394000E350246E480E01D04C0EE76EE72EFED7F2
:0E395000E76AE72EFED7242EF7D700001200FC
:02395E00000E59
:10396000F36E00EE00F0060E01D81200EA6002D0FD
:0E397000EE6AFCD7F350E9601200EE6AFCD755
:02397E0012EE47
:1039800000F022EE00F0F86A019CFCEC1BF003EC66
:0A39900000F03AEC17F0FBD712002C
:06399A00FF0EE350E84EB1
:1039A0001200000000D000D000D0E82EFAD712009C
:1039B000000000000000015C8F02400000010000D8
:1039C00000000000000000000000000000000000F7
:0339D000000000F4
:020000040030CA
:0100010026D8
:010002000BF2
:010003000EEE
:0100050001F9
:0100060001F8
:010008000FE8
:01000900C036
:01000A000FE6
:01000B00E014
:01000C000FE4
:01000D0040B2
:00000001FF
