:020000040000FA
:06000000ECEF15F0120008
:020006001200E6
:060008006DEF0AF012008A
:06001800B5EF0AF0120032
:02001E000100DF
:0C002000F42B0000000F00001F00000087
:04002C00D9CFE6FF43
:10003000E1CFD9FFFD0EDBCF1CF0DB06FE0EDBCFE0
:100040001DF001E2DB061C501D1002E00000F2D79B
:10005000E552E7CFD9FF1200D9CFE6FFE1CFD9FFB4
:10006000FD0EDBCF1CF0DB06FE0EDBCF1DF001E248
:10007000DB061C501D1006E0100EE66ECCEC15F0F1
:10008000E552EED7E552E7CFD9FF1200D9CFE6FF10
:10009000E1CFD9FFFE0EDB508C6E8A90080EE66E23
:1000A000E66AC4DFE552E5528A80E552E7CFD9FF20
:1000B00012009F0EE66EEADFE552BF0EE66EE6DF47
:1000C000E552DF0EE66EE2DFE552E668DFDFE5527D
:1000D0008A968A948B808A888A8A89800A0EE66E3C
:1000E000E66ABADFE552E55289900A0EE66EE66AE4
:1000F000B3DFE552E55289801200D9CFE6FFE1CFA8
:10010000D9FF8A94FC0EDB50530801E18A848A9659
:100110008B90FE0EDB508C6E8A98000EE66EE66ABF
:1001200085DFE552E5528A888B808A868B90FD0EAA
:10013000DB508C6E8A98000EE66EE66A77DFE55239
:10014000E5528A888B80E552E7CFD9FF1200020E74
:10015000926E936A900E946E956A966AF26AD08E49
:10016000F28EF28CF28EF28CC26AC16AC06A776A31
:10017000796A786ABD6A666A0F015D6B576B546B6A
:10018000386B396B3A6B3B6B3C6BD36A040ED26EA7
:10019000200E9B6EBA9451954A959D8A9F8A9D9890
:1001A0009F98949C948EAC98AC9CAC8AAB9CAB888A
:1001B000AB8EB896AC94070EAF6E8A928B848B840C
:1001C0008A808B8289808B808A888A8A8A968A94A0
:1001D000949A94969488C78EC78CC790C69EC69CE6
:1001E000C68AC698C690C692C694C696F8EF00F026
:1001F000BA86BA98BA9ABA9CBA90BA92590EBB6E9D
:100200009F929E929D82BA941200D9CFE6FFE1CFD1
:10021000D9FFE652C790C69EC950DF6EFE0EDB5076
:10022000C96EC7A0FED7C95000D0E552E552E7CF4E
:10023000D9FF1200D9CFE6FFE1CFD9FF020EE126A8
:10024000400EDE6ECE0EDD6E8B94DECF1CF0DDCF69
:100250001DF01DC01CF01D6A1C50E66ED6DFE55275
:10026000DFCFE6FFD2DFE5528B84020EE15C02E2D3
:10027000E16AE552E16EE552E7CFD9FF1200D9CF2E
:10028000E6FFE1CFD9FF020EE1268B92050EE66E66
:10029000BCDFE552E66AB9DFE552DE6EDD6A8B82CD
:1002A000DF50010BF2E1020EE15C02E2E16AE5528D
:1002B000E16EE552E7CFD9FF1200D9CFE6FFE1CFDB
:1002C000D9FFE6528B92C950DF6E030EC96EC7A0EC
:1002D000FED7C950DF6EFD0EDB50C96EC7A0FED73A
:1002E000C950DF6EFC0EDB50C96EC7A0FED7C950E7
:1002F000DF6EFB0EDB50C96EC7A0FED7C950DF6EA4
:10030000C96AC7A0FED78B82C95000D0E552E5521A
:10031000E7CFD9FF1200D9CFE6FFE1CFD9FFAFDF9A
:100320008B92060EE66E71DFE5528B820A0EE66E48
:10033000E66A7CDEE552E5528B92020EE66E65DFE0
:10034000E552FD0EDBCFE6FF60DFE552FC0EDBCFB2
:10035000E6FF5BDFE552FB0EDBCFE6FF56DFE55243
:10036000FA0EDBCFE6FF51DFE5528B82E552E7CF95
:10037000D9FF1200D9CFE6FFE1CFD9FFE652DF6AFD
:100380007EDF8B92030EE66E40DFE552FD0EDBCF83
:10039000E6FF3BDFE552FC0EDBCFE6FF36DFE55242
:1003A000FB0EDBCFE6FF31DFE552E66A2EDFE552DA
:1003B000DF6E8B82DF5000D0E552E552E7CFD9FFE8
:1003C00012005DDF8B92060EE66E1FDFE5528B8218
:1003D000010EE66EE66A40DEE552E5528B92600E53
:1003E000E66E13DFE5528B823FEF01F0D9CFE6FFD7
:1003F000E1CFD9FF44DF8B92060EE66E06DFE552B1
:100400008B82010EE66EE66A27DEE552E5528B929C
:10041000D80EE66EFADEE552FD0EDBCFE6FFF5DE26
:10042000E552FC0EDBCFE6FFF0DEE552FB0EDBCF44
:10043000E6FFEBDEE5528B8222DFE552E7CFD9FF04
:100440001200D9CFE6FFE1CFD9FF020EE12617DF78
:100450008B92060EE66ED9DEE5528B82010EE66EB9
:10046000E66AFADDE552E5528B92020EE66ECDDECB
:10047000E552FD0EDBCFE6FFC8DEE552FC0EDBCF1A
:10048000E6FFC3DEE552FB0EDBCFE6FFBEDEE55244
:10049000DE6ADD6ADECF1CF0DDCF1DF0000E1C5CD5
:1004A000010E1D5812E2F90EDBCFE9FFDB2AFA0E2E
:1004B000DBCFEAFF01E3DB2AEF50E66EA6DEE55272
:1004C000DF2A010E01E3DB2AE5D78B82020EE15C15
:1004D00002E2E16AE552E16EE552E7CFD9FF120090
:1004E000D9CFE6FFE1CFD9FF030EE126040EF36E6C
:1004F000020EF3CFDBFFC3DE8B920B0EE66E85DEC2
:10050000E552FD0EDBCFE6FF80DEE552FC0EDBCFD1
:10051000E6FF7BDEE552FB0EDBCFE6FF76DEE55243
:10052000DE6ADD6ADECF1CF0DDCF1DF0400E1C5C04
:10053000000E1D5815E2E66A68DEE552E66EF90E19
:10054000DBCFE9FFDB2AFA0EDBCFEAFF01E3DB2A90
:10055000E552E750EF6EDF2A010E01E3DB2AE2D716
:100560008B82D950FB0FE96EFF0EDA20EA6E400E47
:10057000EE26000EEE22EE22EE22020EDB06040E26
:10058000F36E020EDBCFF4FFF350F45CB4E3030E22
:10059000E15C02E2E16AE552E16EE552E7CFD9FFA4
:1005A0001200D9CFE6FFE1CFD9FFFE0EDB50AD6ED2
:1005B0009EA8FED7E552E7CFD9FF1200AB889EAACE
:1005C000FED7AE5000D01200D9CFE6FFE1CFD9FF61
:1005D0000D0EE126DE6ADE6ADE6ADD6ADD52DD527C
:1005E000040EDB6A050EDB6A060EDB6A070EDB6AA9
:1005F000080EDB6A090EDB6A0A0EDB6A0B0EDB6A89
:100600000C0EDB6A00C2E6FF01C2E6FF02C2E6FF93
:1006100003C2E6FFAFDEE552E552E552E552E76E72
:10062000040EE7CFDBFF040EDB50660A02E1A2EF07
:1006300007F0860A01E1E1D3600A01E199D3010ADA
:1006400001E196D3030A01E193D3010A01E190D3BA
:10065000070A01E18DD3010A01E18AD3030A01E10E
:1006600087D3010A01E184D30F0A01E181D3010A92
:1006700001E17ED3030A01E17BD3010A01E178D3D2
:10068000070A01E175D3010A01E172D3030A01E10E
:100690006FD3010A01E16CD3FF0A01E12DD3010AF6
:1006A00001E12AD3030A01E127D3010A01E124D39E
:1006B000070A01E121D3010A01E11ED3030A01E186
:1006C0001BD3010A01E118D30F0A01E115D3010A76
:1006D00001E112D3030A01E10FD3010A01E10CD3B6
:1006E000070A01E109D3010A01E106D3030A01E186
:1006F00003D3010A01E100D3180A01E16BD1040A16
:1007000001E144D1010A01E11DD1030A01E17FD0D9
:10071000330A3FE0010A3DE0030A22E01F0A02E03B
:10072000ABEF07F00201002B000E0123022303238D
:10073000060EE66EABDCE55200C2E6FF01C2E6FF44
:1007400002C2E6FF03C2E6FF15DEE552E552E552BE
:10075000E552E66E9BDCE552F36AF46AB1EF07F00E
:100760000201002B000E01230223032300C2E6FF37
:1007700001C2E6FF02C2E6FF03C2E6FFFBDDE5526F
:10078000E552E552E552E66E81DCE552F36AF46A21
:10079000E8D30201002B000E01230223032300C231
:1007A000E6FF01C2E6FF02C2E6FF03C2E6FFE2DDAA
:1007B000E552E552E552E552E76E050EE7CFDBFF65
:1007C0000201002B000E01230223032300C2E6FFD7
:1007D00001C2E6FF02C2E6FF03C2E6FFCBDDE5523F
:1007E000E552E552E552E76E060EE7CFDBFF040E59
:1007F000DBCFE6FF060EDBCFE6FF050EDBCFE6FF25
:100800007CDCE552E552E552F36AF46AAAD3DE6A6B
:10081000DE6ADE6ADD6ADD52DD52070EDB6A080E33
:10082000DB6A070EDBCF1CF0080EDBCF1DF0020EDB
:100830001C5C000E1D585DE20201002B000E01231E
:100840000223032300C2E6FF01C2E6FF02C2E6FF65
:1008500003C2E6FF8FDDE552E552E552E552226E16
:10086000236A080E086E096A070EDBCF0DF0080E2A
:10087000DBCF0EF056EC14F0065022C020F023C05F
:1008800021F005E0D89020362136E804FBE120C0B5
:1008900008F021C009F057EC13F007C01CF008C0A5
:1008A0001DF009C01EF00AC01FF0D9CFE9FFDACF52
:1008B000EAFFEECF07F0EECF08F0EECF09F0EFCF72
:1008C0000AF01CC00CF01DC00DF01EC00EF01FC0C1
:1008D0000FF06DEC13F00AC0EDFF09C0EDFF08C08A
:1008E000EDFF07C0EFFF070EDB2A080E01E3DB2A4E
:1008F00098D7D9CFE9FFDACFEAFFEECF1EF0EECFDF
:100900001FF0EECF20F0EFCF21F007CF0CF008CF93
:100910000DF009CF0EF00ACF0FF01EC007F01FC078
:1009200008F020C009F021C00AF003EC14F074ECC8
:1009300014F008C01CF009C01DF01CC0F3FF1DC05E
:10094000F4FF0FD31E6AC00E1F6E370E206E440ECA
:10095000216E07CF0CF008CF0DF009CF0EF00ACFB3
:100960000FF01EC007F01FC008F020C009F021C022
:100970000AF003EC14F074EC14F008C01CF009C089
:100980001DF01CC0F3FF1DC0F4FFEBD21E6A800EE9
:100990001F6E5C0E206E440E216E07CF0CF008CF48
:1009A0000DF009CF0EF00ACF0FF01EC007F01FC0E8
:1009B00008F020C009F021C00AF003EC14F074EC38
:1009C00014F008C01CF009C01DF01CC0F3FF1DC0CE
:1009D000F4FFC7D20201002B000E012302230323E0
:1009E0000201002B000E012302230323070EDB6A02
:1009F000080EDB6A070EDBCF1CF0080EDBCF1DF004
:100A0000040E1C5C000E1D5838E20201002B000E83
:100A100001230223032300C2E6FF01C2E6FF02C254
:100A2000E6FF03C2E6FFA6DCE552E552E552E552D9
:100A30001C6E1D6A1E6A1F6A080E086E096A070E80
:100A4000DBCF0DF0080EDBCF0EF056EC14F00650A5
:100A50001F0B07E0D8901C361D361E361F36E806E1
:100A6000F9E11C500F011C271D500F011D23070E1B
:100A7000DB2A080E01E3DB2ABDD70F01000ED88068
:100A80001C55000E1D5501E316D10F01000ED88034
:100A90001C55000E1D5501E20ED10F011E5101E043
:100AA0000AD1E66A400EE66EE66A1CCFE6FF1DCF6D
:100AB000E6FF03EC0AF01C6E050EE15E1C50E76ECB
:100AC0000B0EE7CFDBFF010EE66E400EE66EE66A28
:100AD0001CCFE6FF1DCFE6FF03EC0AF01C6E050EEF
:100AE000E15E1C50E76E0C0EE7CFDBFF0C0EDB5017
:100AF000000802E20B0EDB2A070EDB6A080EDB6A37
:100B0000070EDBCF1CF0080EDBCF1DF00B0EDB5009
:100B10001E6E1F6A1E501C5C1F501D581DE2070EE2
:100B2000DBCF1CF0080EDBCF1DF0060ED8901C3674
:100B30001D36E806FBE1000E1C26300E1D221CC0EF
:100B4000E6FF1DC0E6FFB1DBE552E552070EDB2AEA
:100B5000080E01E3DB2AD4D7E66AE66A010EE66EE8
:100B60001CCFE6FF1DCFE6FF03EC0AF01C6E050E5E
:100B7000E15E1C50E76E0B0EE7CFDBFF010EE66E69
:100B8000E66A010EE66E1CCFE6FF1DCFE6FF03EC22
:100B90000AF01C6E050EE15E1C50E76E0C0EE7CFEE
:100BA000DBFF0C0EDB50000802E20B0EDB2A090E05
:100BB000DB6A0A0EDB6A090EDBCF1CF00A0EDBCF04
:100BC0001DF00B0EDB501E6E1F6A1E501C5C1F506A
:100BD0001D5865E2070EDB6A080EDB6A070EDBCFE5
:100BE0001CF0080EDBCF1DF0000E1C5C010E1D5822
:100BF00028E20201002B000E01230223032300C27E
:100C0000E6FF01C2E6FF02C2E6FF03C2E6FFBAEC5E
:100C100001F0E552E552E552E552E66E070EDBCFF4
:100C2000E9FF080EDBCFEAFF0C0EE926020EEA22EE
:100C3000E552E750EF6E070EDB2A080E01E3DB2AD0
:100C4000CDD70C0EE66E020EE66E090EDBCF1CF061
:100C50000A0EDBCF1DF01CC01DF01C6A000E1C2606
:100C6000300E1D221CC0E6FF1DC0E6FF3CDBE55236
:100C7000E552E552E552E66A010EE66EE66A0C0EB2
:100C8000E66E020EE66E9CEC15F01C6E050EE15E43
:100C90001C50090EDB2A0A0E01E3DB2A8CD70F0158
:100CA0001A6B1B6B010EE66E54EC0AF0E5520F0155
:100CB000010E1E6F1ED00F011E5110E100C200FF79
:100CC00001C201FF02C202FF03C203FF00CF04F210
:100CD00001CF05F202CF06F203CF07F20F011C513C
:100CE000020100270F011D5102010123000E022302
:100CF0000323F36AF46A35D1040EDB500F0B010FA6
:100D00001C6E1CC009F046EC13F007C0DEFF08C0E3
:100D1000DEFF09C0DEFF0AC0DDFFDD52DD52D9CFA4
:100D2000E9FFDACFEAFFEECF1EF0EECF1FF0EECFF5
:100D300020F0EFCF21F007CF0CF008CF0DF009CF56
:100D40000EF00ACF0FF01EC007F01FC008F020C041
:100D500009F021C00AF003EC14F074EC14F008C0A0
:100D60001CF009C01DF01CC0F3FF1DC0F4FFF9D03A
:100D70002A0EF36E050EF3CFDBFF0F011E5113E0B9
:100D80000F011A2B000E1B23000E0F011A25F66E01
:100D9000300E0F011B21F76EF86A0D000A00060ED7
:100DA000F5CFDBFF18D00201042B000E052306232C
:100DB000072304C2E6FF05C2E6FF06C2E6FF07C23C
:100DC000E6FFBAEC01F0E552E552E552E552E76E76
:100DD000060EE7CFDBFF040EDBCFE6FF060EDBCF10
:100DE000E6FF050EDBCFE6FF7DEC00F0E552E552B5
:100DF000E552040EF36EF46AB4D00F011E514BE0BD
:100E00000F011A6B1B6B070EDB6A080EDB6A070EFD
:100E1000DBCF1CF0080EDBCF1DF0040E1C5C000EB7
:100E20001D5838E20201002B000E01230223032388
:100E300000C2E6FF01C2E6FF02C2E6FF03C2E6FF10
:100E4000BAEC01F0E552E552E552E5521E6E1F6A1A
:100E5000080E086E096A070EDBCF0DF0080EDBCF17
:100E60000EF056EC14F006501EC01CF01FC01DF012
:100E700005E0D8901C361D36E804FBE11C500F013C
:100E80001A271D500F011B23070EDB2A080E01E352
:100E9000DB2ABDD754D000CF04F201CF05F202CF38
:100EA00006F203CF07F2070EDB6A080EDB6A070EB5
:100EB000DBCF1CF0080EDBCF1DF0040E1C5C000E17
:100EC0001D583DE20201002B000E012302230323E3
:100ED00000C2E6FF01C2E6FF02C2E6FF03C2E6FF70
:100EE000BAEC01F0E552E552E552E5521E6E1F6A7A
:100EF000080E086E096A070EDBCF0DF0080EDBCF77
:100F00000EF056EC14F006501EC01CF01FC01DF071
:100F100005E0D8901C361D36E804FBE100011C50AA
:100F20000201042700011D5002010523000E0623C3
:100F30000723070EDB2A080E01E3DB2AB8D7F36A82
:100F4000F46A0FD002013F0E006F016B026B036B5E
:100F5000F36AF46A06D0F36AF46A03D0F36AF46AB7
:100F600000D00D0EE15C02E2E16AE552E16EE5526D
:100F7000E7CFD9FF1200D9CFE6FFE1CFD9FF060EA8
:100F8000E126DF6A010EDB6A020EDB6A030EDB6A12
:100F9000040EDB6A010EF36E050EF3CFDBFF050EC8
:100FA000DB5001E178D10201002B000E0123022366
:100FB000032300C2E6FF01C2E6FF02C2E6FF03C24E
:100FC000E6FF5DEC01F0E552E552E552E552DF6ED9
:100FD000DF50660A01E150D1860A01E1F5D0600ACE
:100FE00001E1F1D0010A01E1EED0030A01E1EBD009
:100FF000010A01E1E8D0070A01E1E5D0010A01E1B7
:10100000E2D0030A01E1DFD0010A01E1DCD00F0ADE
:1010100001E1D9D0010A01E1D6D0030A01E1D3D020
:10102000010A01E1D0D0070A01E1CDD0010A01E1B6
:10103000CAD0030A01E1C7D0010A01E1C4D0FF0A06
:1010400001E1C0D0010A01E1BDD0030A01E1BAD03B
:10105000010A01E1B7D0070A01E1B4D0010A01E1B8
:10106000B1D0030A01E1AED0010A01E1ABD00F0A11
:1010700001E1A8D0010A01E1A5D0030A01E1A2D053
:10108000010A01E19FD0070A01E19CD0010A01E1B8
:1010900099D0030A01E196D0010A01E193D0180A20
:1010A00034E0050A31E0010A2FE0020A22E0330AA7
:1010B00015E0010A13E0030A0AE01F0A01E0EAD082
:1010C0000201002B000E012302230323E3D00201BF
:1010D000002B000E012302230323DCD00201002B8E
:1010E000000E012302230323002B012302230323E9
:1010F000D1D00201002B000E012302230323002B79
:10110000012302230323C6D0C5D00201002B000E09
:10111000012302230323002B012302230323010EB7
:10112000DB6A020EDB6A010EDBCF1CF0020EDBCFA6
:101130001DF0040E1C5C000E1D5838E20201002B4D
:10114000000E01230223032300C2E6FF01C2E6FFD3
:1011500002C2E6FF03C2E6FF5DEC01F0E552E55294
:10116000E552E5521C6E1D6A1E6A1F6A080E086E63
:10117000096A010EDBCF0DF0020EDBCF0EF056EC4C
:1011800014F006501F0B07E0D8901C361D361E3693
:101190001F36E806F9E11C500F011C271D501D23C6
:1011A000010EDB2A020E01E3DB2ABDD70F011C5121
:1011B000020100270F011D5102010123000E02232D
:1011C000032368D067D066D0010EDB6A020EDB6AAB
:1011D000010EDBCF1CF0020EDBCF1DF0040E1C5CF9
:1011E000000E1D5844E20201002B000E01230223D1
:1011F000032300C2E6FF01C2E6FF02C2E6FF03C20C
:10120000E6FF5DEC01F0E552E552E552E5521E6E57
:101210001F6A080E086E096A010EDBCF0DF0020E80
:10122000DBCF0EF056EC14F006501EC01CF01FC0B1
:101230001DF005E0D8901C361D36E804FBE11ACFFE
:10124000E9FF1BCFEAFF010ED890E936EA36E8063F
:10125000FBE10C0EE926040EEA221C50EE261D507E
:10126000ED22010EDB2A020E01E3DB2AB1D70F01CA
:101270001A2B000E1B230ED002013F0E006F016BD4
:10128000026B036B0F011C6B1D6B1A6B1B6B050E46
:10129000DB6A00D084D6060EE15C02E2E16AE55228
:1012A000E16EE552E7CFD9FF1200D9CFE6FFE1CFDB
:1012B000D9FFFD0EDBCFF6FFFE0EDBCFF7FFF86A9E
:1012C000A68EA69CA684A688F29E550EA76EAA0E90
:1012D000A76EA682A6B2FED70000F28EA694E552B3
:1012E000E7CFD9FF1200D9CFE6FFE1CFD9FF030E38
:1012F000E126DF6A010EDB6A020EDB6AFD0EDBCF40
:10130000F6FFFE0EDBCFF7FFF86AA694010EDB6A4C
:10131000020EDB6A010EDBCF1CF0020EDBCF1DF0EC
:10132000000E1C5C010E1D5840E2DF6A080EDF5CF7
:1013300019E2DF50E76E010EDBCF1CF0020EDBCFAF
:101340001DF0E7501C26000E1D22FB0EDB501C2456
:10135000E96EFC0EDB501D20EA6EEF50F56E0D00BD
:10136000DF2AE4D70A00A68EA69CA684F29E550E1C
:10137000A76EAA0EA76EA682A6B2FED70000A694FC
:10138000F28E0900080EE76E010EDBCF1CF0020E94
:10139000DBCF1DF0E7501C26000E1D22010E1CC0E5
:1013A000DBFF020E1DC0DBFFB5D7030EE15C02E2DE
:1013B000E16AE552E16EE552E7CFD9FF1200D9CFDD
:1013C000E6FFE1CFD9FF020EE126DF6A010EDB6AFC
:1013D000F29EFD0EDBCFF6FFFE0EDBCFF7FFF86AC5
:1013E0000D000A00F550DF6EF28EDF5000D01C6E4B
:1013F000020EE15C02E2E16AE552E16E1C50E55248
:10140000E7CFD9FF1200D9CFE6FFE1CFD9FF020E17
:10141000E126DF6A010EDB6AFD0EDBCF08F0FE0E6F
:10142000DBCF09F0FB0EDBCF0DF0FC0EDBCF0EF0B7
:10143000B6EC15F00850DF6EFD0EDBCF08F0FE0EA7
:10144000DBCF09F0FB0EDBCF0DF0FC0EDBCF0EF097
:10145000B6EC15F0010E04C0DBFFFA0EDB5003E121
:10146000DF5004D003D0010EDB5000D01C6E020E02
:10147000E15C02E2E16AE552E16E1C50E552E7CF21
:10148000D9FF1200D9CFE6FFE1CFD9FFE652A96A12
:10149000A69EA69CA680A850DF6EDF5000D0E55225
:1014A000E552E7CFD9FF1200D9CFE6FFE1CFD9FF50
:1014B000A96AFE0EDB50A86EA69EA69CA684F29E8C
:1014C000550EA76EAA0EA76EA682A6B2FED7F28E02
:1014D000A694E552E7CFD9FF1200DACFE4FFE2CFBE
:1014E000DAFFE9CFE4FFEACFE4FFE652D9CFE6FF27
:1014F000E1CFD9FFE6529EAA2CD0060EAB140CE029
:101500000F01122B000E1323AB9AAE50DF6EAB8A85
:10151000102B000E11231DD00F010D5109E00C0EF0
:101520000E25E96E020E0F21EA6EAECFEFFF08D056
:101530000C0E0E25E96E030E0F21EA6EAECFEFFF03
:101540000E2B000E0F23142B152316231723102BFD
:101550001123E552E552E7CFD9FFE552E5CFEAFF87
:10156000E5CFE9FFE5CFDAFF1100D8CFE4FFE0CF08
:10157000E4FFE46EDACFE4FFE2CFDAFFE9CFE4FF85
:10158000EACFE4FFF6CFE4FFF7CFE4FFF8CFE4FFC4
:10159000F5CFE4FFF3CFE4FFF4CFE4FFFACFE4FFAD
:1015A00000EE00F0140EE80403E3EECFE4FFFBD7F7
:1015B00000EE1CF0080EE80403E3EECFE4FFFBD7D7
:1015C000E652D9CFE6FFE1CFD9FF0F0EE1269EA26A
:1015D0001AEF10F0DE6ADE6ADE6ADD6ADD52DD5285
:1015E000040EDB6A050EDB6A060EDB6A070EDB6A99
:1015F000080EDB6A090EDB6A0A0EDB6A0B0EDB6A79
:101600000C0EDB6A0D0EDB6A0F01000ED88004554C
:10161000000E055504E20F010407000E055B0F01E3
:101620000451051102E019EF10F00F01060502E068
:1016300019EF10F00F01066B0201002B000E0123C1
:10164000022303238B920E0EC9CFDBFF030EC96E5C
:10165000C7A0FED70E0EC9CFDBFF02C2C9FFC7A0CD
:10166000FED70E0EC9CFDBFF01C2C9FFC7A0FED750
:101670000E0EC9CFDBFF00C2C9FFC7A0FED70D0EFB
:10168000C9CFDBFFC96AC7A0FED78B82040EC9CFC2
:10169000DBFF040EDB504F083DE10201002B000E82
:1016A000012302230323060EE66E46EC00F0E5520A
:1016B0008B920E0EC9CFDBFF030EC96EC7A0FED7FB
:1016C0000E0EC9CFDBFF02C2C9FFC7A0FED70E0EA8
:1016D000C9CFDBFF01C2C9FFC7A0FED70E0EC9CF1D
:1016E000DBFF00C2C9FFC7A0FED70D0EC9CFDBFFCD
:1016F000C96AC7A0FED78B820D0EC9CFDBFF0D0EC6
:10170000DBCFE6FF46EC00F0E5520F01046B056B02
:1017100016EF10F0040EDB50500838E10201002BE8
:10172000000E0123022303238B920E0EC9CFDBFF91
:10173000030EC96EC7A0FED70E0EC9CFDBFF02C2D3
:10174000C9FFC7A0FED70E0EC9CFDBFF01C2C9FF7C
:10175000C7A0FED70E0EC9CFDBFF00C2C9FFC7A0CE
:10176000FED70D0EC9CFDBFFC96AC7A0FED78B829B
:101770000D0EC9CFDBFF0D0EDBCFE6FF46EC00F010
:10178000E5520F01046B056B16EF10F0040EDB50F1
:10179000520804E0040EDB5053086CE10201002BF8
:1017A000000E0123022303238B920E0EC9CFDBFF11
:1017B000030EC96EC7A0FED70E0EC9CFDBFF02C253
:1017C000C9FFC7A0FED70E0EC9CFDBFF01C2C9FFFC
:1017D000C7A0FED70E0EC9CFDBFF00C2C9FFC7A04E
:1017E000FED70D0EC9CFDBFFC96AC7A0FED78B821B
:1017F000050EC9CFDBFF0201002B000E01230223DF
:1018000003238B920E0EC9CFDBFF030EC96EC7A058
:10181000FED70E0EC9CFDBFF02C2C9FFC7A0FED79D
:101820000E0EC9CFDBFF01C2C9FFC7A0FED70E0E47
:10183000C9CFDBFF00C2C9FFC7A0FED70D0EC9CFBD
:10184000DBFFC96AC7A0FED78B82060EC9CFDBFFBC
:10185000040EDBCFE6FF060EDBCFE6FF050EDBCF87
:10186000E6FF7DEC00F0E552E552E5520F01046B16
:10187000056BDCD3040EDB50610801E0AFD0DE6AFB
:10188000DE6ADE6ADD6ADD52DD52070EDB6A080EB3
:10189000DB6A070EDBCF14F0080EDBCF15F0020E6B
:1018A000145C000E155875E20201002B000E012396
:1018B000022303238B920E0EC9CFDBFF030EC96EEA
:1018C000C7A0FED70E0EC9CFDBFF02C2C9FFC7A05B
:1018D000FED70E0EC9CFDBFF01C2C9FFC7A0FED7DE
:1018E0000E0EC9CFDBFF00C2C9FFC7A0FED70D0E89
:1018F000C9CFDBFFC96AC7A0FED78B82C9501A6E59
:101900001B6A080E086E096A070EDBCF0DF0080E81
:10191000DBCF0EF056EC14F006501AC018F01BC0C6
:1019200019F005E0D89018361936E804FBE118C024
:1019300008F019C009F057EC13F007C014F008C004
:1019400015F009C016F00AC017F0D9CFE9FFDACFB9
:10195000EAFFEECF07F0EECF08F0EECF09F0EFCFC1
:101960000AF014C00CF015C00DF016C00EF017C030
:101970000FF06DEC13F00AC0EDFF09C0EDFF08C0D9
:10198000EDFF07C0EFFF070EDB2A080E01E3DB2A9D
:1019900080D7D9CFE9FFDACFEAFFEECF14F0EECF50
:1019A00015F0EECF16F0EFCF17F007CF0CF008CF01
:1019B0000DF009CF0EF00ACF0FF014C007F015C0DC
:1019C00008F016C009F017C00AF003EC14F074EC2C
:1019D00014F008C004FF09C005FF28D3040EDB5033
:1019E000620820E1146AC00E156E370E166E440EA2
:1019F000176E07CF0CF008CF0DF009CF0EF00ACF0D
:101A00000FF014C007F015C008F016C009F017C099
:101A10000AF003EC14F074EC14F008C004FF09C0E1
:101A200005FF04D3040EDB50630820E1146A800E26
:101A3000156E5C0E166E440E176E07CF0CF008CFB5
:101A40000DF009CF0EF00ACF0FF014C007F015C04B
:101A500008F016C009F017C00AF003EC14F074EC9B
:101A600014F008C004FF09C005FFE0D2040EDB50EB
:101A7000670801E094D10201002B000E012302232C
:101A800003230201002B000E012302230323070E70
:101A9000DB6A080EDB6A070EDBCF14F0080EDBCF23
:101AA00015F0040E145C000E155839E20201002BEB
:101AB000000E01230223032300C2E6FF01C2E6FF5A
:101AC00002C2E6FF03C2E6FF5DEC01F0E552E5521B
:101AD000E552E552146E156A166A176A080E086E0A
:101AE000096A070EDBCF0DF0080EDBCF0EF056ECC7
:101AF00014F006501F0B07E0D89014361536163632
:101B00001736E806F9E114500F011C2715500F0194
:101B10001D23070EDB2A080E01E3DB2ABCD70F01C9
:101B2000000ED8801C55000E1D5501E316D10F0183
:101B3000000ED8801C55000E1D5501E20ED10F017C
:101B40001E5101E00AD1E66A400EE66EE66A1CCF3D
:101B5000E6FF1DCFE6FF57DC146E050EE15E145064
:101B6000E76E0B0EE7CFDBFF010EE66E400EE66E72
:101B7000E66A1CCFE6FF1DCFE6FF45DC146E050EBE
:101B8000E15E1450E76E0C0EE7CFDBFF0C0EDB506E
:101B9000000802E20B0EDB2A070EDB6A080EDB6A86
:101BA000070EDBCF14F0080EDBCF15F00B0EDB5069
:101BB000166E176A1650145C175015581EE2070E61
:101BC000DBCF14F0080EDBCF15F0060ED8901436DC
:101BD0001536E806FBE1000E1426300E152214C05F
:101BE000E6FF15C0E6FF55EC09F0E552E552070E99
:101BF000DB2A080E01E3DB2AD3D7E66AE66A010E88
:101C0000E66E1CCFE6FF1DCFE6FF03EC0AF0146E74
:101C1000050EE15E1450E76E0B0EE7CFDBFF010E01
:101C2000E66EE66A010EE66E1CCFE6FF1DCFE6FF0C
:101C300003EC0AF0146E050EE15E1450E76E0C0E14
:101C4000E7CFDBFF0C0EDB50000802E20B0EDB2AB5
:101C5000090EDB6A0A0EDB6A090EDBCF14F00A0EEE
:101C6000DBCF15F00B0EDB50166E176A1650145CA6
:101C70001750155866E2070EDB6A080EDB6A070E7E
:101C8000DBCF14F0080EDBCF15F0000E145C010E54
:101C9000155828E20201002B000E01230223032322
:101CA00000C2E6FF01C2E6FF02C2E6FF03C2E6FF92
:101CB0005DEC01F0E552E552E552E552E66E070EA5
:101CC000DBCFE9FF080EDBCFEAFF0C0EE926020EA0
:101CD000EA22E552E750EF6E070EDB2A080E01E319
:101CE000DB2ACDD70C0EE66E020EE66E090EDBCFB8
:101CF00014F00A0EDBCF15F014C015F0146A000EB4
:101D00001426300E152214C0E6FF15C0E6FF73EC52
:101D100009F0E552E552E552E552E66A010EE66E3B
:101D2000E66A0C0EE66E020EE66E9CEC15F0146E82
:101D3000050EE15E1450090EDB2A0A0E01E3DB2AD0
:101D40008BD70F011A6B1B6B010EE66E54EC0AF079
:101D5000E5520F01010E1E6F1ED00F011E5110E142
:101D600000C200FF01C201FF02C202FF03C203FF63
:101D700000CF04F201CF05F202CF06F203CF07F243
:101D80000F011C51020100270F011D510201012307
:101D9000000E022303230F01046B056B47D1700E65
:101DA000F36E040EDBCFF4FFF350F45C3CE3040E5F
:101DB000DB507F0838E3040EDB500F0B010F146E6D
:101DC00014C009F046EC13F007C0DEFF08C0DEFFC8
:101DD00009C0DEFF0AC0DDFFDD52DD52D9CFE9FFC9
:101DE000DACFEAFFEECF14F0EECF15F0EECF16F01B
:101DF000EFCF17F007CF0CF008CF0DF009CF0EF0A2
:101E00000ACF0FF014C007F015C008F016C009F093
:101E100017C00AF003EC14F074EC14F008C004FFCF
:101E200009C005FF03D1800EF36E040EDBCFF4FF73
:101E3000F350F45C01E292D0040EDB508F0801E213
:101E40008DD0040EDB500F0B146E14C009F046EC5D
:101E500013F007C0DEFF08C0DEFF09C0DEFF0AC0C6
:101E6000DDFFDD52DD522A0EF36E050EF3CFDBFFF0
:101E70000F011E5113E00F011A2B000E1B23000E41
:101E80000F011A25F66E300E0F011B21F76EF86A4E
:101E90000D000A00060EF5CFDBFF2DD00201042B4A
:101EA000000E0523062307238B920E0EC9CFDBFFFE
:101EB000030EC96EC7A0FED70E0EC9CFDBFF06C248
:101EC000C9FFC7A0FED70E0EC9CFDBFF05C2C9FFF1
:101ED000C7A0FED70E0EC9CFDBFF04C2C9FFC7A043
:101EE000FED70D0EC9CFDBFFC96AC7A0FED78B8214
:101EF000060EC9CFDBFF040EDBCFE6FF060EDBCFFD
:101F0000E6FF050EDBCFE6FF7DEC00F0E552E55283
:101F1000E552D9CFE9FFDACFEAFFEECF14F0EECFEA
:101F200015F0EECF16F0EFCF17F007CF0CF008CF7B
:101F30000DF009CF0EF00ACF0FF014C007F015C056
:101F400008F016C009F017C00AF003EC14F074ECA6
:101F500014F008C004FF09C005FF68D0040EDB5070
:101F6000E00853E1040E02010027000E02010123E4
:101F7000000E02010223000E020103230F011E5175
:101F800017E00F0118CFE9FF19CFEAFF182B000E59
:101F90001923010ED890E936EA36E806FBE10C0E6B
:101FA000E926040EEA22EECF1AFFEDCF1BFF29D05F
:101FB00000CF04F201CF05F202CF06F203CF07F201
:101FC0000F0118CFE9FF19CFEAFF182B000E1923D4
:101FD000010ED890E936EA36E806FBE10C0EE92658
:101FE000040EEA22EECF14F0EFCF15F000011450EA
:101FF000020104270001155002010523000E0623EB
:1020000007230F01046B056B11D0040EDB5066082B
:102010000AE102013F0E006F016B026B036B0F01BF
:10202000046B056B03D00F01046B056B0F01010EF0
:10203000066F8D729E920F0EE15C02E2E16AE5523C
:10204000E16EE552E7CFD9FFE55200EE23F0080E2E
:10205000E80403E3E5CFEDFFFBD700EE13F0140E29
:10206000E80403E3E5CFEDFFFBD7E5CFFAFFE5CFCB
:10207000F4FFE5CFF3FFE5CFF5FFE5CFF8FFE5CFC0
:10208000F7FFE5CFF6FFE5CFEAFFE5CFE9FFE5CFC4
:10209000DAFFE550E5CFE0FFE5CFD8FF1000D9CF5C
:1020A000E6FFE1CFD9FF0E0EE126030EDB6A040E38
:1020B000DB6A050EDB6A060EDB6A070EDB6A080EBA
:1020C000DB6A090EDB6A0A0EDB6A0B0EDB6A0C0E9A
:1020D000DB6A0D0EDB6AE66A010EE66EE66A0C0E3E
:1020E000E66E020EE66E9CEC15F01C6E050EE15ECF
:1020F0001C50E66A010EE66EE66A0C0EE66E030EF2
:10210000E66E9CEC15F01C6E050EE15E1C50A7EC13
:1021100000F01AEC01F059EC00F042EC0AF00F016B
:102120001E6FFF0E1E5D01E11E6B02013F0E006F70
:10213000016B026B036B046B056B066B076B0F0E79
:1021400089168C6A8D928D94980EE66E080EE66E56
:10215000E66A0C0EE66E040EE66E9CEC15F01C6E44
:10216000050EE15E1C50BBEC07F0BA9480B203D0C0
:1021700080A2FED7BA84640E02010C5D01E073D226
:102180000C5102E0000E01D0010EBA9459EC00F09F
:102190000F01146B156B166B176B106B116B0E6BBD
:1021A0000F6B100EE66ED1EC02F0E552030E0F013C
:1021B000145D000E1559000E1659000E175901E254
:1021C000F5D70EC208F20201096B0A6B0B6B080E01
:1021D0001F0B08C21CF009C21DF00AC21EF00BC280
:1021E0001FF007E0D8901C361D361E361F36E80655
:1021F000F9E10DC220F0216A226A236A1C502010E6
:102200000201086F1D502110096F1E5022100A6F25
:102210001F5023100B6F080E1F0B08C21CF009C2C1
:102220001DF00AC21EF00BC21FF007E0D8901C364A
:102230001D361E361F36E806F9E10CC220F0216A71
:10224000226A236A1C5020100201086F1D502110C1
:10225000096F1E5022100A6F1F5023100B6F08C207
:1022600006F009C207F00AC208F00BC209F00B6AB7
:10227000010E0C6E0D6A0E6A78EC15F0070E02C0A6
:10228000DBFF080E03C0DBFF08C206F009C207F03F
:102290000AC208F00BC209F00B6A010E0C6E0D6A3F
:1022A0000E6A78EC15F0090E06C0DBFF0A0E07C0B7
:1022B000DBFFE66A010EE66EE66A0C0EE66E020EC3
:1022C000E66E9CEC15F01C6E050EE15E1C50E66A95
:1022D000010EE66EE66A0C0EE66E030EE66E9CECF0
:1022E00015F01C6E050EE15E1C50010EDF6E0F0135
:1022F0000D6F146B156B166B176B106B116B0E6BF0
:102300000F6B0B0EDB6A0C0EDB6A0201006B016BBC
:10231000026B036B08C206F009C207F00AC208F09C
:102320000BC209F00B680C680D6A0E6A78EC15F0A8
:10233000D880000E0654000E0754000E0854000EFC
:10234000095424E208C21CF009C21DF00AC21EF0A2
:102350000BC21FF00B680C680D6A0E6A1CC006F0F9
:102360001DC007F01EC008F01FC009F078EC15F082
:1023700006C01CF007C01DF008C01EF009C01FF009
:102380001C2A000E1D221E221F2204D01C6A1D6A58
:102390001E6A1F6A0D0E1CC0DBFF010EDB6A020EF7
:1023A000DB6A010EDBCF1CF0020EDBCF1DF00D0E41
:1023B000DB501E6E1F6A1C501E5C1D501F581BE315
:1023C00000C2E6FF01C2E6FF02C2E6FF03C2E6FF6B
:1023D000F6EC01F0E552E552E552E552FF0E02013E
:1023E00000270123000E02230323010EDB2A020E25
:1023F00001E3DB2AD6D70201006B016B026B036B92
:10240000F00EE66ED1EC02F0E552DF5001E11AD198
:102410000F01125113111AE0105102E1010E1119AE
:1024200015E1126B136B1507000E165B175B030E9D
:10243000DB2A040E01E3DB2A0B0EDB060C0E01E2A5
:10244000DB06010EAD6E9EA8FED7FBD0105102E157
:10245000010E11191CE00B0EDBCF1CF00C0EDBCFB4
:102460001DF0090EDB501C1803E10A0EDB501D188D
:1024700001E0E7D0070EDBCF1EF0080EDBCF1FF028
:1024800010511E1802E111511F1801E0DAD00B0E95
:10249000DBCF1CF00C0EDBCF1DF0090EDB501C183F
:1024A00003E10A0EDB501D1819E1070EDBCF1EF009
:1024B000080EDBCF1FF010511E1802E111511F183A
:1024C0000DE1070EDBCF08F0080EDBCF09F0050E9B
:1024D00008C0DBFF060E09C0DBFF07D0050EDB6A74
:1024E000010EF36E060EF3CFDBFF0D5102E0000E7E
:1024F00001D0010E0D6F106B116B0E6B0F6B0B0E7D
:10250000DB2A0C0E01E3DB2A0B0EDBCF1CF00C0EDA
:10251000DBCF1DF0090EDBCF1EF00A0EDBCF1FF064
:102520001C501E5C1D501F5804E3020EAD6E9EA889
:10253000FED70F010D5113E10C0EE66E020EE66E92
:1025400000C2E6FF01C2E6FF02C2E6FF03C2E6FFE9
:1025500021EC02F01C6E060EE15E1C5012D00C0E37
:10256000E66E030EE66E00C2E6FF01C2E6FF02C29F
:10257000E6FF03C2E6FF21EC02F01C6E060EE15EF0
:102580001C50050EDBCF1CF0060EDBCF1DF000014A
:102590001C500201002700011D5002010123000E02
:1025A00002230323080EE96E020EEA6EEE500F01BD
:1025B000141909E1EE50151906E1EE50161903E160
:1025C000EE50171900E13DE10B0EDBCF1CF00C0EB5
:1025D000DBCF1DF0090EDBCF1EF00A0EDBCF1FF0A4
:1025E0001E501C5C1F501D582CE3DF6A010E0D6F3E
:1025F000106B116B0E6B0F6B020EAD6E9EA8FED7AB
:102600000201006B016B026B036BE66A010EE66E62
:10261000E66A0C0EE66E020EE66E9CEC15F01C6E81
:10262000050EE15E1C50E66A010EE66EE66A0C0ECF
:10263000E66E030EE66E9CEC15F01C6E050EE15E78
:102640001C50E3D602013F0E006F016B026B036B5F
:10265000046B056B066B076BBA84E66A54EC0AF0F0
:10266000E5520F011E6B8D74640EE66EE66A2CEC6B
:1026700000F0E552E5527AD50E0EE15C02E2E16A25
:0C268000E552E16EE552E7CFD9FF1200F1
:04268C00019E05D0D6
:10269000019E09AE02D0096C018E09C003F0026AE6
:1026A000136A126A860E046E056ABFEF14F0019E6B
:1026B00008D0019E09AE05D0086C091EE86A0922FF
:1026C000018E09C003F008C002F0136A126A8E0E70
:1026D000046E056ABFEF14F00F7E016AFBEC14F084
:1026E00013EC15F001B6A3EF14F001A20AD001AA71
:1026F00003D001BEA3EF14F001A4AFEF14F0ACEFD0
:1027000014F001AA05D001ACAFEF14F0ACEF14F057
:1027100001A00AD001A808D001BE04D001A402D0B3
:10272000B8EF14F0BCEF14F0126A056A0F500A5C9F
:10273000116E10E307C013F008C002F009C003F0E7
:102740000AC010F00CC007F00DC008F00EC009F070
:10275000013A09D00CC013F00DC002F00EC003F016
:102760000FC010F0116C019E01BC018E10C004F06E
:1027700001B0EBEF14F01A0E1160EBEF14F0046AE5
:102780000A6A01A408D0076C081E091E0A1EE86A1E
:10279000082209220A2201AC08D0136C021E031E73
:1027A000041EE86A022203220422066A115207E08C
:1027B0000A340932083207320632112EF9D707508F
:1027C000132608500222095003220A50042206C090
:1027D00012F0019E04AE0BD0126C131E021E031EDB
:1027E000041EE86A1322022203220422018E04A09E
:1027F00006D0D8800332023213321232102A10C0AF
:1028000004F0BFEF14F0016AFBEC14F013EC15F0C8
:1028100001B6A3EF14F001A205D001BAA3EF14F0A2
:10282000AAEF14F001BAB6EF14F001A005D001B878
:10283000A3EF14F0B6EF14F001B8AAEF14F0056A94
:102840007F0E0A24046EE86A05220F50045EE86ACF
:10285000055A1A0E106E0A6A126A136A026A036A2D
:102860000C50075E0D50085A0E50095A000E0A5AB5
:1028700009E70C5007260D5008220E500922000EC1
:102880000A2201D0128AD8900736083609360A364D
:10289000D8901236133602360336102EE1D709507F
:1028A00008100710D8A4128ABFEF14F008C012F065
:1028B00008500D02F4CF07F0F3CF06F009500E02D6
:1028C000F4CF09F0F3CF08F00D02F3500726F450CF
:1028D0000822E86A092212500E02F3500726F4502B
:1028E0000822E86A0922000C016AFBEC14F001B628
:1028F0007EEF14F001A20ED001B405D07F0E096E58
:10290000FF0E086E1FD0800E096E086A1BD0096A80
:10291000086A18D001B0FBD78F0E0A60EDD77E0E83
:102920000A64F5D78E0E0A5C05E0D89009320832A9
:102930000A2AF8D701A406D0086C091EE86A092201
:1029400009AEE5D712007F0E0A6EFF0E096E086E03
:10295000076E12007F0E01BEFF0E0A6E02D07F0EC0
:102960000A6E800E096E086A076AF3D701AE04D0BA
:10297000800E0A6E096AF7D70A6A096AF4D703500B
:10298000021013101210F8E005BEF0D703BE0CD0F1
:1029900004500510EBE0D890123613360236033699
:1029A0000406D8A00506F2D70550D4E10428D2E0E9
:1029B00012AE11D07F0E121402E113A00CD0132A14
:1029C000E86A0222032207E3D8800332023213327C
:1029D000042A0428BFE00450C9E013C007F002C075
:1029E00008F00334096E04300A6E09320A9E01BEF3
:1029F0000A8EA9EF14F009360A3602E30184017E3B
:102A000006E101800A6A096A086A076A12000A2850
:102A100003E0D88009321200D890093202E1018225
:102A20001200018612000E360F3602E3018C017E81
:102A300006E101880F6A0E6A0D6A0C6A12000F28FF
:102A400003E0D8800E321200D8900E32EAE1018AFB
:022A5000120072
:0E2A52001E0EF66E000EF76E000EF86E0F01EF
:102A60000900F550246F0900F550256F03E1246734
:102A700001D03DD00900F5501F6F0900F550206FBF
:102A80000900F550216F09000900F550E96E0900B1
:102A9000F550EA6E090009000900F550226F09009F
:102AA000F550236F09000900F6CF26FFF7CF27FF67
:102AB000F8CF28FF1FCFF6FF20CFF7FF21CFF8FF79
:102AC0000F01225302E1235307E00900F550EE6E97
:102AD0002207F8E22307F9D726CFF6FF27CFF7FF23
:102AE00028CFF8FF0F012407000E255BBFD7120087
:102AF000056A046A036A026A200EE76ED8900636F9
:102B000007360836093602360336043605360B50CA
:102B1000025C0C5003580D5004580E50055809E340
:102B20000B50025E0C50035A0D50045A0E50055AB9
:082B3000062AE72EE4D712008B
:082B3800FE0EE3CFE9FFFF0EE2
:102B4000E3CFEAFFE9CFF3FFEACFF4FFFB0EE35058
:102B500003E1FC0EE35009E0FB0EE30602E2FC0E8B
:0C2B6000E306FD0EE350EE6EF1D712000C
:042B6C00056A046A88
:102B7000100EE76ED89008360936043605360D502B
:102B8000045C0E50055805E30D50045E0E50055AC6
:082B9000082AE72EF0D712001D
:082B9800FF0EE350246E480E0D
:102BA00001D04C0EE76EE72EFED7E76AE72EFED780
:082BB000242EF7D700001200EB
:082BB800380EF36E00EE00F090
:102BC0000F0E01D81200EA6002D0EE6AFCD7F35073
:082BD000E9601200EE6AFCD777
:082BD8001EEE00F02EEE00F0ED
:102BE000F86A019C29EC15F003EC00F04FEC10F0B2
:042BF000FBD71200FD
:0C2BF4000000000000000152B89E3F00ED
:102C000000010000000000000000000000000000C3
:032C1000000000C1
:020000040030CA
:0100010033CB
:0100020002FB
:0100030020DC
:01000500B545
:010006008178
:010008000FE8
:01000900C036
:01000A000FE6
:01000B00E014
:01000C000FE4
:01000D0040B2
:00000001FF
